{
  "contractName": "MerchItem",
  "abi": [
    {
      "constant": true,
      "inputs": [],
      "name": "costOfItem",
      "outputs": [
        {
          "name": "",
          "type": "uint256"
        }
      ],
      "payable": false,
      "stateMutability": "view",
      "type": "function"
    },
    {
      "constant": true,
      "inputs": [
        {
          "name": "",
          "type": "address"
        }
      ],
      "name": "patrons",
      "outputs": [
        {
          "name": "patronAddress",
          "type": "address"
        },
        {
          "name": "numOfPurchasedItem",
          "type": "uint256"
        },
        {
          "name": "portionOfFunds",
          "type": "uint256"
        },
        {
          "name": "hasDelivered",
          "type": "bool"
        }
      ],
      "payable": false,
      "stateMutability": "view",
      "type": "function"
    },
    {
      "constant": true,
      "inputs": [],
      "name": "rateOfDecline",
      "outputs": [
        {
          "name": "",
          "type": "uint256"
        }
      ],
      "payable": false,
      "stateMutability": "view",
      "type": "function"
    },
    {
      "constant": true,
      "inputs": [],
      "name": "priceOfItem",
      "outputs": [
        {
          "name": "",
          "type": "uint256"
        }
      ],
      "payable": false,
      "stateMutability": "view",
      "type": "function"
    },
    {
      "constant": true,
      "inputs": [],
      "name": "auctionLimit",
      "outputs": [
        {
          "name": "",
          "type": "uint256"
        }
      ],
      "payable": false,
      "stateMutability": "view",
      "type": "function"
    },
    {
      "constant": true,
      "inputs": [],
      "name": "itemNumber",
      "outputs": [
        {
          "name": "",
          "type": "uint256"
        }
      ],
      "payable": false,
      "stateMutability": "view",
      "type": "function"
    },
    {
      "constant": true,
      "inputs": [],
      "name": "nameOfItem",
      "outputs": [
        {
          "name": "",
          "type": "string"
        }
      ],
      "payable": false,
      "stateMutability": "view",
      "type": "function"
    },
    {
      "constant": true,
      "inputs": [],
      "name": "totalAmountOfItemSold",
      "outputs": [
        {
          "name": "",
          "type": "uint256"
        }
      ],
      "payable": false,
      "stateMutability": "view",
      "type": "function"
    },
    {
      "constant": true,
      "inputs": [],
      "name": "totalSupplyOfItem",
      "outputs": [
        {
          "name": "",
          "type": "uint256"
        }
      ],
      "payable": false,
      "stateMutability": "view",
      "type": "function"
    },
    {
      "constant": true,
      "inputs": [],
      "name": "startPrice",
      "outputs": [
        {
          "name": "",
          "type": "uint256"
        }
      ],
      "payable": false,
      "stateMutability": "view",
      "type": "function"
    },
    {
      "constant": true,
      "inputs": [],
      "name": "admin",
      "outputs": [
        {
          "name": "",
          "type": "address"
        }
      ],
      "payable": false,
      "stateMutability": "view",
      "type": "function"
    },
    {
      "constant": true,
      "inputs": [],
      "name": "token",
      "outputs": [
        {
          "name": "",
          "type": "address"
        }
      ],
      "payable": false,
      "stateMutability": "view",
      "type": "function"
    },
    {
      "inputs": [
        {
          "name": "newItemName",
          "type": "string"
        },
        {
          "name": "newItemCost",
          "type": "uint256"
        },
        {
          "name": "newItemTotalSupply",
          "type": "uint256"
        },
        {
          "name": "newStartPrice",
          "type": "uint256"
        },
        {
          "name": "newRateOfDecline",
          "type": "uint256"
        },
        {
          "name": "tokenAddress",
          "type": "address"
        }
      ],
      "payable": false,
      "stateMutability": "nonpayable",
      "type": "constructor"
    },
    {
      "constant": true,
      "inputs": [
        {
          "name": "numOfItem",
          "type": "uint256"
        }
      ],
      "name": "purchaseItem",
      "outputs": [
        {
          "name": "",
          "type": "uint256"
        }
      ],
      "payable": false,
      "stateMutability": "view",
      "type": "function"
    },
    {
      "constant": true,
      "inputs": [],
      "name": "distributeFundsToPatrons",
      "outputs": [],
      "payable": false,
      "stateMutability": "pure",
      "type": "function"
    },
    {
      "constant": true,
      "inputs": [],
      "name": "claimTotalSellingValue",
      "outputs": [],
      "payable": false,
      "stateMutability": "pure",
      "type": "function"
    },
    {
      "constant": true,
      "inputs": [],
      "name": "payOperationalCost",
      "outputs": [],
      "payable": false,
      "stateMutability": "pure",
      "type": "function"
    },
    {
      "constant": true,
      "inputs": [],
      "name": "deliveryRequest",
      "outputs": [],
      "payable": false,
      "stateMutability": "pure",
      "type": "function"
    },
    {
      "constant": true,
      "inputs": [],
      "name": "receivedItem",
      "outputs": [],
      "payable": false,
      "stateMutability": "pure",
      "type": "function"
    },
    {
      "constant": false,
      "inputs": [
        {
          "name": "numOfItem",
          "type": "uint256"
        }
      ],
      "name": "_checkPaymentAbility",
      "outputs": [
        {
          "name": "",
          "type": "bool"
        }
      ],
      "payable": false,
      "stateMutability": "nonpayable",
      "type": "function"
    },
    {
      "constant": false,
      "inputs": [
        {
          "name": "itemNum",
          "type": "uint256"
        }
      ],
      "name": "_calculatePriceOfItem",
      "outputs": [
        {
          "name": "",
          "type": "uint256"
        }
      ],
      "payable": false,
      "stateMutability": "nonpayable",
      "type": "function"
    },
    {
      "constant": false,
      "inputs": [
        {
          "name": "totalPayment",
          "type": "uint256"
        }
      ],
      "name": "_userHasEnoughFunds",
      "outputs": [
        {
          "name": "",
          "type": "bool"
        }
      ],
      "payable": false,
      "stateMutability": "nonpayable",
      "type": "function"
    }
  ],
  "bytecode": "0x60806040523480156200001157600080fd5b50604051620015b2380380620015b2833981018060405260c08110156200003757600080fd5b8101908080516401000000008111156200005057600080fd5b828101905060208101848111156200006757600080fd5b81518560018202830111640100000000821117156200008557600080fd5b505092919060200180519060200190929190805190602001909291908051906020019092919080519060200190929190805190602001909291905050508560029080519060200190620000da929190620006ac565b50600160038190555084600481905550836007819055508260058190555081600681905550600060098190555062000123600354620001c0640100000000026401000000009004565b60088190555062093a80600a8190555033600160006101000a81548173ffffffffffffffffffffffffffffffffffffffff021916908373ffffffffffffffffffffffffffffffffffffffff160217905550806000806101000a81548173ffffffffffffffffffffffffffffffffffffffff021916908373ffffffffffffffffffffffffffffffffffffffff1602179055505050505050506200075b565b6000806200020d6002620001f0600454600554620003056401000000000262000aa4179091906401000000009004565b620003606401000000000262000aee179091906401000000009004565b9050600062000283671bc16d674ec800006200026662000246600188620003056401000000000262000aa4179091906401000000009004565b600654620003606401000000000262000aee179091906401000000009004565b620004316401000000000262000bbb179091906401000000009004565b90506000620002f8600454620002db670de0b6b3a7640000620002be8688620004bc6401000000000262000c45179091906401000000009004565b620003606401000000000262000aee179091906401000000009004565b620004316401000000000262000bbb179091906401000000009004565b9050809350505050919050565b60006200035883836040805190810160405280601e81526020017f536166654d6174683a207375627472616374696f6e206f766572666c6f77000081525062000517640100000000026401000000009004565b905092915050565b6000808314156200037557600090506200042b565b600082840290508284828115156200038957fe5b0414151562000426576040517f08c379a00000000000000000000000000000000000000000000000000000000081526004018080602001828103825260218152602001807f536166654d6174683a206d756c7469706c69636174696f6e206f766572666c6f81526020017f770000000000000000000000000000000000000000000000000000000000000081525060400191505060405180910390fd5b809150505b92915050565b6000808284019050838110151515620004b2576040517f08c379a000000000000000000000000000000000000000000000000000000000815260040180806020018281038252601b8152602001807f536166654d6174683a206164646974696f6e206f766572666c6f77000000000081525060200191505060405180910390fd5b8091505092915050565b60006200050f83836040805190810160405280601a81526020017f536166654d6174683a206469766973696f6e206279207a65726f000000000000815250620005dd640100000000026401000000009004565b905092915050565b60008383111582901515620005ca576040517f08c379a00000000000000000000000000000000000000000000000000000000081526004018080602001828103825283818151815260200191508051906020019080838360005b838110156200058e57808201518184015260208101905062000571565b50505050905090810190601f168015620005bc5780820380516001836020036101000a031916815260200191505b509250505060405180910390fd5b5060008385039050809150509392505050565b6000808311829015156200068f576040517f08c379a00000000000000000000000000000000000000000000000000000000081526004018080602001828103825283818151815260200191508051906020019080838360005b838110156200065357808201518184015260208101905062000636565b50505050905090810190601f168015620006815780820380516001836020036101000a031916815260200191505b509250505060405180910390fd5b50600083858115156200069e57fe5b049050809150509392505050565b828054600181600116156101000203166002900490600052602060002090601f016020900481019282601f10620006ef57805160ff191683800117855562000720565b8280016001018555821562000720579182015b828111156200071f57825182559160200191906001019062000702565b5b5090506200072f919062000733565b5090565b6200075891905b80821115620007545760008160009055506001016200073a565b5090565b90565b610e47806200076b6000396000f3fe60806040526004361061011d576000357c0100000000000000000000000000000000000000000000000000000000900463ffffffff16806304fb2cd7146101225780631bd9421f146101715780631c0557b2146101c45780632539204b146101db5780632797d0a4146101f25780632ef463201461021d5780633961ba93146102c75780634202bbe0146102f257806344514a421461031d57806359e635d61461034857806372b70acd1461035f57806382f94a69146103b25780638eaef827146103dd578063bc76293a146103f4578063d38ea5bf14610484578063d40dd3b6146104d3578063e96176b5146104fe578063f1a9af8914610529578063f6f920f514610554578063f851a4401461056b578063fc0c546a146105c2575b600080fd5b34801561012e57600080fd5b5061015b6004803603602081101561014557600080fd5b8101908080359060200190929190505050610619565b6040518082815260200191505060405180910390f35b34801561017d57600080fd5b506101aa6004803603602081101561019457600080fd5b81019080803590602001909291905050506106de565b604051808215151515815260200191505060405180910390f35b3480156101d057600080fd5b506101d9610855565b005b3480156101e757600080fd5b506101f0610857565b005b3480156101fe57600080fd5b50610207610859565b6040518082815260200191505060405180910390f35b34801561022957600080fd5b5061026c6004803603602081101561024057600080fd5b81019080803573ffffffffffffffffffffffffffffffffffffffff16906020019092919050505061085f565b604051808573ffffffffffffffffffffffffffffffffffffffff1673ffffffffffffffffffffffffffffffffffffffff1681526020018481526020018381526020018215151515815260200194505050505060405180910390f35b3480156102d357600080fd5b506102dc6108bc565b6040518082815260200191505060405180910390f35b3480156102fe57600080fd5b506103076108c2565b6040518082815260200191505060405180910390f35b34801561032957600080fd5b506103326108c8565b6040518082815260200191505060405180910390f35b34801561035457600080fd5b5061035d6108ce565b005b34801561036b57600080fd5b506103986004803603602081101561038257600080fd5b81019080803590602001909291905050506108d0565b604051808215151515815260200191505060405180910390f35b3480156103be57600080fd5b506103c7610998565b6040518082815260200191505060405180910390f35b3480156103e957600080fd5b506103f261099e565b005b34801561040057600080fd5b506104096109a0565b6040518080602001828103825283818151815260200191508051906020019080838360005b8381101561044957808201518184015260208101905061042e565b50505050905090810190601f1680156104765780820380516001836020036101000a031916815260200191505b509250505060405180910390f35b34801561049057600080fd5b506104bd600480360360208110156104a757600080fd5b8101908080359060200190929190505050610a3e565b6040518082815260200191505060405180910390f35b3480156104df57600080fd5b506104e8610a45565b6040518082815260200191505060405180910390f35b34801561050a57600080fd5b50610513610a4b565b6040518082815260200191505060405180910390f35b34801561053557600080fd5b5061053e610a51565b6040518082815260200191505060405180910390f35b34801561056057600080fd5b50610569610a57565b005b34801561057757600080fd5b50610580610a59565b604051808273ffffffffffffffffffffffffffffffffffffffff1673ffffffffffffffffffffffffffffffffffffffff16815260200191505060405180910390f35b3480156105ce57600080fd5b506105d7610a7f565b604051808273ffffffffffffffffffffffffffffffffffffffff1673ffffffffffffffffffffffffffffffffffffffff16815260200191505060405180910390f35b6000806106466002610638600454600554610aa490919063ffffffff16565b610aee90919063ffffffff16565b9050600061068c671bc16d674ec8000061067e61066d600188610aa490919063ffffffff16565b600654610aee90919063ffffffff16565b610bbb90919063ffffffff16565b905060006106d16004546106c3670de0b6b3a76400006106b58688610c4590919063ffffffff16565b610aee90919063ffffffff16565b610bbb90919063ffffffff16565b9050809350505050919050565b6000816000809054906101000a900473ffffffffffffffffffffffffffffffffffffffff1673ffffffffffffffffffffffffffffffffffffffff166370a08231336040518263ffffffff167c0100000000000000000000000000000000000000000000000000000000028152600401808273ffffffffffffffffffffffffffffffffffffffff1673ffffffffffffffffffffffffffffffffffffffff16815260200191505060206040518083038186803b15801561079b57600080fd5b505afa1580156107af573d6000803e3d6000fd5b505050506040513d60208110156107c557600080fd5b81019080805190602001909291905050501015151561084c576040517f08c379a00000000000000000000000000000000000000000000000000000000081526004018080602001828103825260128152602001807f696e73756666696369656e742066756e6473000000000000000000000000000081525060200191505060405180910390fd5b60019050919050565b565b565b60045481565b600b6020528060005260406000206000915090508060000160009054906101000a900473ffffffffffffffffffffffffffffffffffffffff16908060010154908060020154908060030160009054906101000a900460ff16905084565b60065481565b60085481565b600a5481565b565b60008060009050600080905060008090505b8481101561092b5761090761090282600354610bbb90919063ffffffff16565b610619565b925061091c8383610bbb90919063ffffffff16565b915080806001019150506108e2565b50610935816106de565b1561098c5761094f84600354610bbb90919063ffffffff16565b60038190555061096a81600954610bbb90919063ffffffff16565b60098190555061097b600354610619565b600881905550600192505050610993565b6000925050505b919050565b60035481565b565b60028054600181600116156101000203166002900480601f016020809104026020016040519081016040528092919081815260200182805460018160011615610100020316600290048015610a365780601f10610a0b57610100808354040283529160200191610a36565b820191906000526020600020905b815481529060010190602001808311610a1957829003601f168201915b505050505081565b6000919050565b60095481565b60075481565b60055481565b565b600160009054906101000a900473ffffffffffffffffffffffffffffffffffffffff1681565b6000809054906101000a900473ffffffffffffffffffffffffffffffffffffffff1681565b6000610ae683836040805190810160405280601e81526020017f536166654d6174683a207375627472616374696f6e206f766572666c6f770000815250610c8f565b905092915050565b600080831415610b015760009050610bb5565b60008284029050828482811515610b1457fe5b04141515610bb0576040517f08c379a00000000000000000000000000000000000000000000000000000000081526004018080602001828103825260218152602001807f536166654d6174683a206d756c7469706c69636174696f6e206f766572666c6f81526020017f770000000000000000000000000000000000000000000000000000000000000081525060400191505060405180910390fd5b809150505b92915050565b6000808284019050838110151515610c3b576040517f08c379a000000000000000000000000000000000000000000000000000000000815260040180806020018281038252601b8152602001807f536166654d6174683a206164646974696f6e206f766572666c6f77000000000081525060200191505060405180910390fd5b8091505092915050565b6000610c8783836040805190810160405280601a81526020017f536166654d6174683a206469766973696f6e206279207a65726f000000000000815250610d51565b905092915050565b60008383111582901515610d3e576040517f08c379a00000000000000000000000000000000000000000000000000000000081526004018080602001828103825283818151815260200191508051906020019080838360005b83811015610d03578082015181840152602081019050610ce8565b50505050905090810190601f168015610d305780820380516001836020036101000a031916815260200191505b509250505060405180910390fd5b5060008385039050809150509392505050565b600080831182901515610dff576040517f08c379a00000000000000000000000000000000000000000000000000000000081526004018080602001828103825283818151815260200191508051906020019080838360005b83811015610dc4578082015181840152602081019050610da9565b50505050905090810190601f168015610df15780820380516001836020036101000a031916815260200191505b509250505060405180910390fd5b5060008385811515610e0d57fe5b04905080915050939250505056fea165627a7a7230582054c06fc9a6827f9d5a859e7da5ed0132b74dd08d54c6a0eed130f196a96a15220029",
  "source": "pragma solidity ^0.5.0;\n\nimport \"openzeppelin-solidity/contracts/math/SafeMath.sol\";\nimport \"./Token.sol\";\n// import \"./IDai.sol\";\n\ncontract MerchItem {\n  using SafeMath for uint256;\n\n  Token public token;\n  // IDai dai;\n\n  struct Patron {\n    address patronAddress;\n    uint256 numOfPurchasedItem;\n    uint256 portionOfFunds;\n    bool hasDelivered;\n  }\n\n  address public admin;\n\n  string public nameOfItem;\n  uint256 public itemNumber;\n  uint256 public costOfItem;\n  uint256 public startPrice;\n  uint256 public rateOfDecline;\n  uint256 public totalSupplyOfItem;\n  uint256 public priceOfItem;\n  uint256 public totalAmountOfItemSold; // total amount of funds collected from patrons\n  uint256 public auctionLimit;\n  mapping(address => Patron) public patrons;\n\n  constructor(\n    string memory newItemName,\n    uint256 newItemCost,\n    uint256 newItemTotalSupply,\n    uint256 newStartPrice,\n    uint256 newRateOfDecline,\n    address tokenAddress\n    ) public {\n    nameOfItem = newItemName;\n    itemNumber = 1;\n    costOfItem = newItemCost;\n    totalSupplyOfItem = newItemTotalSupply;\n    startPrice = newStartPrice;\n    rateOfDecline = newRateOfDecline;\n    totalAmountOfItemSold = 0;\n    priceOfItem = _calculatePriceOfItem(itemNumber);\n\n    auctionLimit = 1 weeks;\n\n    admin = msg.sender;\n    // Token will be replaced with DAI contract when testing on test networks/mainnet\n    // DAIContract = Dai(daiAddress);\n    token = Token(tokenAddress);\n  }\n\n  function purchaseItem(uint256 numOfItem) public view returns (uint256) {\n    // require(_checkPaymentAbility(), \"user does not have sufficient funds\");\n    // require(_mappingPatronToList(), \"fail\");\n    // require(_calculatePortionOfFunds(), \"fail\");\n    // require(_extendAuctionTimeLimit(), \"fail\");\n    // require(_transferFundsToCompound(), \"fail\");\n    // return true;\n  }\n\n  // Function to send/withdraw funds to a particular address\n\n  /**\n  distributes funds in this contract receiving from patrons\n  to them, 50% of product sale\n   */\n  function distributeFundsToPatrons() public pure {\n\n  }\n\n\n  /**\n  allows the creators/artists who up items to an auction to\n  claim the total sold amount in the auction, this function needs hasDelivered to be\n  true, only creators/artists can invoke, 40% of product sale\n   */\n  function claimTotalSellingValue() public pure {\n\n  }\n\n  /**\n  pays 10% of product sale to Operations\n   */\n  function payOperationalCost() public pure {\n\n  }\n\n  // - allows patrons to request to delivery an item they bought in an auction to the seller/designer, only a patron who bought an item can invoke\n  function deliveryRequest() public pure {\n\n  }\n\n  // - updates the state of hasDelivered to true, only a patron who bought an item can invoke\n  function receivedItem() public pure {\n\n  }\n\n  //////////////////////////\n  //                      //\n  //  Internal functions  //\n  //                      //\n  //////////////////////////\n\n\n  // - checks who is in the patron list\n  function _hasPurchasedItem() internal pure returns(bool) {\n    return true;\n  }\n\n  function _checkPaymentAbility(uint256 numOfItem) public returns (bool) {\n    uint256 subTotal = 0;\n    uint256 totalPayment = 0;\n\n    for(uint256 i = 0; i < numOfItem; i++) {\n      subTotal = _calculatePriceOfItem(itemNumber.add(i));\n      totalPayment = totalPayment.add(subTotal);\n    }\n\n    if (_userHasEnoughFunds(totalPayment)) {\n      itemNumber = itemNumber.add(numOfItem);\n      totalAmountOfItemSold = totalAmountOfItemSold.add(totalPayment);\n      priceOfItem = _calculatePriceOfItem(itemNumber);\n      return true;\n    }\n    return false;\n  }\n\n  function _calculatePriceOfItem(uint256 itemNum) public returns (uint256) {\n    uint256 upper = (startPrice.sub(costOfItem)).mul(2);\n    uint256 under = (rateOfDecline.mul(itemNum.sub(1))).add(2000000000000000000);\n    uint256 result = (upper.div(under).mul(1000000000000000000)).add(costOfItem);\n    return result;\n  }\n  \n  // - checks if the payment amount is enough to buy an item  \n  function _userHasEnoughFunds(uint256 totalPayment) public returns (bool) {\n    // check if the user's DAI balance is greater than the payment amount\n    require(token.balanceOf(msg.sender) >= totalPayment, \"insufficient funds\");\n\n    return true;\n  }\n  \n  // - adds a patron struct to patrons list(mapping)\n  function _mappingPatronToList() internal pure returns(bool) {\n    // create a new Patron struct and push it to patrons(mapping)\n    return true;\n    \n  }\n\n  function _calculatePortionOfFunds() internal pure returns(bool) {\n    return true;\n\n  }\n\n  // - extends an auction adding 24 hours to the time limit\n  function _extendAuctionTimeLimit() internal pure returns(bool) {\n    return true;\n\n  }\n\n  // - deposits the funds collected from patrons to Compound to earn interest until the auction finishes\n  function _transferFundsToCompound() internal pure returns(bool) {\n    return true;\n\n  }\n\n\n}\n",
  "sourcePath": "/Users/khiga619/flex/SwagDao/contracts/MerchItem.sol",
  "compiler": {
    "name": "solc",
    "version": "0.5.0+commit.1d4f565a.Emscripten.clang"
  },
  "schemaVersion": "3.0.16",
  "updatedAt": "2019-12-15T01:34:15.756Z",
  "devdoc": {
    "methods": {}
  },
  "userdoc": {
    "methods": {
      "claimTotalSellingValue()": {
        "notice": "allows the creators/artists who up items to an auction to claim the total sold amount in the auction, this function needs hasDelivered to be true, only creators/artists can invoke, 40% of product sale"
      },
      "distributeFundsToPatrons()": {
        "notice": "distributes funds in this contract receiving from patrons to them, 50% of product sale"
      },
      "payOperationalCost()": {
        "notice": "pays 10% of product sale to Operations"
      }
    }
  }
}