{
  "contractName": "MerchItem",
  "abi": [
    {
      "inputs": [
        {
          "internalType": "string",
          "name": "newItemName",
          "type": "string"
        },
        {
          "internalType": "uint256",
          "name": "newItemCost",
          "type": "uint256"
        },
        {
          "internalType": "uint256",
          "name": "newItemTotalSupply",
          "type": "uint256"
        },
        {
          "internalType": "uint256",
          "name": "newStartPrice",
          "type": "uint256"
        },
        {
          "internalType": "uint256",
          "name": "newRateOfDecline",
          "type": "uint256"
        },
        {
          "internalType": "address",
          "name": "tokenAddress",
          "type": "address"
        }
      ],
      "payable": false,
      "stateMutability": "nonpayable",
      "type": "constructor"
    },
    {
      "constant": true,
      "inputs": [],
      "name": "admin",
      "outputs": [
        {
          "internalType": "address",
          "name": "",
          "type": "address"
        }
      ],
      "payable": false,
      "stateMutability": "view",
      "type": "function"
    },
    {
      "constant": true,
      "inputs": [],
      "name": "auctionLimit",
      "outputs": [
        {
          "internalType": "uint256",
          "name": "",
          "type": "uint256"
        }
      ],
      "payable": false,
      "stateMutability": "view",
      "type": "function"
    },
    {
      "constant": true,
      "inputs": [],
      "name": "costOfItem",
      "outputs": [
        {
          "internalType": "uint256",
          "name": "",
          "type": "uint256"
        }
      ],
      "payable": false,
      "stateMutability": "view",
      "type": "function"
    },
    {
      "constant": true,
      "inputs": [],
      "name": "itemNumber",
      "outputs": [
        {
          "internalType": "uint256",
          "name": "",
          "type": "uint256"
        }
      ],
      "payable": false,
      "stateMutability": "view",
      "type": "function"
    },
    {
      "constant": true,
      "inputs": [],
      "name": "nameOfItem",
      "outputs": [
        {
          "internalType": "string",
          "name": "",
          "type": "string"
        }
      ],
      "payable": false,
      "stateMutability": "view",
      "type": "function"
    },
    {
      "constant": true,
      "inputs": [
        {
          "internalType": "address",
          "name": "",
          "type": "address"
        }
      ],
      "name": "patrons",
      "outputs": [
        {
          "internalType": "address",
          "name": "patronAddress",
          "type": "address"
        },
        {
          "internalType": "uint256",
          "name": "numOfPurchasedItem",
          "type": "uint256"
        },
        {
          "internalType": "uint256",
          "name": "portionOfFunds",
          "type": "uint256"
        },
        {
          "internalType": "bool",
          "name": "hasDelivered",
          "type": "bool"
        }
      ],
      "payable": false,
      "stateMutability": "view",
      "type": "function"
    },
    {
      "constant": true,
      "inputs": [],
      "name": "priceOfItem",
      "outputs": [
        {
          "internalType": "uint256",
          "name": "",
          "type": "uint256"
        }
      ],
      "payable": false,
      "stateMutability": "view",
      "type": "function"
    },
    {
      "constant": true,
      "inputs": [],
      "name": "rateOfDecline",
      "outputs": [
        {
          "internalType": "uint256",
          "name": "",
          "type": "uint256"
        }
      ],
      "payable": false,
      "stateMutability": "view",
      "type": "function"
    },
    {
      "constant": true,
      "inputs": [],
      "name": "startPrice",
      "outputs": [
        {
          "internalType": "uint256",
          "name": "",
          "type": "uint256"
        }
      ],
      "payable": false,
      "stateMutability": "view",
      "type": "function"
    },
    {
      "constant": true,
      "inputs": [],
      "name": "token",
      "outputs": [
        {
          "internalType": "contract Token",
          "name": "",
          "type": "address"
        }
      ],
      "payable": false,
      "stateMutability": "view",
      "type": "function"
    },
    {
      "constant": true,
      "inputs": [],
      "name": "totalAmountOfItemSold",
      "outputs": [
        {
          "internalType": "uint256",
          "name": "",
          "type": "uint256"
        }
      ],
      "payable": false,
      "stateMutability": "view",
      "type": "function"
    },
    {
      "constant": true,
      "inputs": [],
      "name": "totalSupplyOfItem",
      "outputs": [
        {
          "internalType": "uint256",
          "name": "",
          "type": "uint256"
        }
      ],
      "payable": false,
      "stateMutability": "view",
      "type": "function"
    },
    {
      "constant": false,
      "inputs": [
        {
          "internalType": "uint256",
          "name": "numOfItem",
          "type": "uint256"
        }
      ],
      "name": "purchaseItem",
      "outputs": [
        {
          "internalType": "bool",
          "name": "",
          "type": "bool"
        }
      ],
      "payable": false,
      "stateMutability": "nonpayable",
      "type": "function"
    },
    {
      "constant": true,
      "inputs": [],
      "name": "distributeFundsToPatrons",
      "outputs": [],
      "payable": false,
      "stateMutability": "pure",
      "type": "function"
    },
    {
      "constant": true,
      "inputs": [],
      "name": "claimTotalSellingValue",
      "outputs": [],
      "payable": false,
      "stateMutability": "pure",
      "type": "function"
    },
    {
      "constant": true,
      "inputs": [],
      "name": "payOperationalCost",
      "outputs": [],
      "payable": false,
      "stateMutability": "pure",
      "type": "function"
    },
    {
      "constant": true,
      "inputs": [],
      "name": "deliveryRequest",
      "outputs": [],
      "payable": false,
      "stateMutability": "pure",
      "type": "function"
    },
    {
      "constant": true,
      "inputs": [],
      "name": "receivedItem",
      "outputs": [],
      "payable": false,
      "stateMutability": "pure",
      "type": "function"
    },
    {
      "constant": false,
      "inputs": [
        {
          "internalType": "uint256",
          "name": "numOfItem",
          "type": "uint256"
        }
      ],
      "name": "_calculateTotalPayment",
      "outputs": [
        {
          "internalType": "uint256",
          "name": "",
          "type": "uint256"
        }
      ],
      "payable": false,
      "stateMutability": "nonpayable",
      "type": "function"
    },
    {
      "constant": false,
      "inputs": [
        {
          "internalType": "uint256",
          "name": "itemNum",
          "type": "uint256"
        }
      ],
      "name": "_calculatePriceOfItem",
      "outputs": [
        {
          "internalType": "uint256",
          "name": "",
          "type": "uint256"
        }
      ],
      "payable": false,
      "stateMutability": "nonpayable",
      "type": "function"
    },
    {
      "constant": false,
      "inputs": [
        {
          "internalType": "uint256",
          "name": "totalPayment",
          "type": "uint256"
        }
      ],
      "name": "_paymentForItem",
      "outputs": [
        {
          "internalType": "bool",
          "name": "",
          "type": "bool"
        }
      ],
      "payable": false,
      "stateMutability": "nonpayable",
      "type": "function"
    },
    {
      "constant": false,
      "inputs": [
        {
          "internalType": "uint256",
          "name": "numOfItem",
          "type": "uint256"
        },
        {
          "internalType": "uint256",
          "name": "totalPayment",
          "type": "uint256"
        }
      ],
      "name": "_updateStates",
      "outputs": [
        {
          "internalType": "bool",
          "name": "",
          "type": "bool"
        }
      ],
      "payable": false,
      "stateMutability": "nonpayable",
      "type": "function"
    }
  ],
  "bytecode": "0x60806040523480156200001157600080fd5b50604051620016d4380380620016d4833981810160405260c08110156200003757600080fd5b81019080805160405193929190846401000000008211156200005857600080fd5b838201915060208201858111156200006f57600080fd5b82518660018202830111640100000000821117156200008d57600080fd5b8083526020830192505050908051906020019080838360005b83811015620000c3578082015181840152602081019050620000a6565b50505050905090810190601f168015620000f15780820380516001836020036101000a031916815260200191505b5060405260200180519060200190929190805190602001909291908051906020019092919080519060200190929190805190602001909291905050508560029080519060200190620001459291906200053d565b506001600381905550846004819055508360078190555082600581905550816006819055506000600981905550620001856003546200022260201b60201c565b60088190555062093a80600a8190555033600160006101000a81548173ffffffffffffffffffffffffffffffffffffffff021916908373ffffffffffffffffffffffffffffffffffffffff160217905550806000806101000a81548173ffffffffffffffffffffffffffffffffffffffff021916908373ffffffffffffffffffffffffffffffffffffffff160217905550505050505050620005ec565b6000806200025d600262000249600454600554620002f860201b62000dc71790919060201c565b6200034a60201b62000e111790919060201c565b90506000620002b8671bc16d674ec80000620002a46200028d600188620002f860201b62000dc71790919060201c565b6006546200034a60201b62000e111790919060201c565b620003d560201b62000e971790919060201c565b90506000620002eb600454620002d7858560126200045e60201b60201c565b620003d560201b62000e971790919060201c565b9050809350505050919050565b60006200034283836040518060400160405280601e81526020017f536166654d6174683a207375627472616374696f6e206f766572666c6f7700008152506200047960201b60201c565b905092915050565b6000808314156200035f5760009050620003cf565b60008284029050828482816200037157fe5b0414620003ca576040517f08c379a0000000000000000000000000000000000000000000000000000000008152600401808060200182810382526021815260200180620016b36021913960400191505060405180910390fd5b809150505b92915050565b60008082840190508381101562000454576040517f08c379a000000000000000000000000000000000000000000000000000000000815260040180806020018281038252601b8152602001807f536166654d6174683a206164646974696f6e206f766572666c6f77000000000081525060200191505060405180910390fd5b8091505092915050565b60008282600a0a8502816200046f57fe5b0490509392505050565b60008383111582906200052a576040517f08c379a00000000000000000000000000000000000000000000000000000000081526004018080602001828103825283818151815260200191508051906020019080838360005b83811015620004ee578082015181840152602081019050620004d1565b50505050905090810190601f1680156200051c5780820380516001836020036101000a031916815260200191505b509250505060405180910390fd5b5060008385039050809150509392505050565b828054600181600116156101000203166002900490600052602060002090601f016020900481019282601f106200058057805160ff1916838001178555620005b1565b82800160010185558215620005b1579182015b82811115620005b057825182559160200191906001019062000593565b5b509050620005c09190620005c4565b5090565b620005e991905b80821115620005e5576000816000905550600101620005cb565b5090565b90565b6110b780620005fc6000396000f3fe608060405234801561001057600080fd5b50600436106101425760003560e01c806382f94a69116100b8578063e96176b51161007c578063e96176b51461045d578063ef71711e1461047b578063f1a9af89146104c1578063f6f920f5146104df578063f851a440146104e9578063fc0c546a1461053357610142565b806382f94a691461034e5780638eaef8271461036c578063bc76293a14610376578063d38ea5bf146103f9578063d40dd3b61461043f57610142565b80632797d0a41161010a5780632797d0a41461022f5780632ef463201461024d5780633961ba93146102ea5780634202bbe01461030857806344514a421461032657806359e635d61461034457610142565b806304fb2cd7146101475780630b4c5430146101895780631c0557b2146101d95780632057c617146101e35780632539204b14610225575b600080fd5b6101736004803603602081101561015d57600080fd5b810190808035906020019092919050505061057d565b6040518082815260200191505060405180910390f35b6101bf6004803603604081101561019f57600080fd5b810190808035906020019092919080359060200190929190505050610621565b604051808215151515815260200191505060405180910390f35b6101e1610674565b005b61020f600480360360208110156101f957600080fd5b8101908080359060200190929190505050610676565b6040518082815260200191505060405180910390f35b61022d6106dc565b005b6102376106de565b6040518082815260200191505060405180910390f35b61028f6004803603602081101561026357600080fd5b81019080803573ffffffffffffffffffffffffffffffffffffffff1690602001909291905050506106e4565b604051808573ffffffffffffffffffffffffffffffffffffffff1673ffffffffffffffffffffffffffffffffffffffff1681526020018481526020018381526020018215151515815260200194505050505060405180910390f35b6102f2610741565b6040518082815260200191505060405180910390f35b610310610747565b6040518082815260200191505060405180910390f35b61032e61074d565b6040518082815260200191505060405180910390f35b61034c610753565b005b610356610755565b6040518082815260200191505060405180910390f35b61037461075b565b005b61037e61075d565b6040518080602001828103825283818151815260200191508051906020019080838360005b838110156103be5780820151818401526020810190506103a3565b50505050905090810190601f1680156103eb5780820380516001836020036101000a031916815260200191505b509250505060405180910390f35b6104256004803603602081101561040f57600080fd5b81019080803590602001909291905050506107fb565b604051808215151515815260200191505060405180910390f35b610447610b49565b6040518082815260200191505060405180910390f35b610465610b4f565b6040518082815260200191505060405180910390f35b6104a76004803603602081101561049157600080fd5b8101908080359060200190929190505050610b55565b604051808215151515815260200191505060405180910390f35b6104c9610d74565b6040518082815260200191505060405180910390f35b6104e7610d7a565b005b6104f1610d7c565b604051808273ffffffffffffffffffffffffffffffffffffffff1673ffffffffffffffffffffffffffffffffffffffff16815260200191505060405180910390f35b61053b610da2565b604051808273ffffffffffffffffffffffffffffffffffffffff1673ffffffffffffffffffffffffffffffffffffffff16815260200191505060405180910390f35b6000806105aa600261059c600454600554610dc790919063ffffffff16565b610e1190919063ffffffff16565b905060006105f0671bc16d674ec800006105e26105d1600188610dc790919063ffffffff16565b600654610e1190919063ffffffff16565b610e9790919063ffffffff16565b9050600061061460045461060685856012610f1f565b610e9790919063ffffffff16565b9050809350505050919050565b600061063883600354610e9790919063ffffffff16565b60038190555061065382600954610e9790919063ffffffff16565b60098190555061066460035461057d565b6008819055506001905092915050565b565b60008060009050600080905060008090505b848110156106d1576106ad6106a882600354610e9790919063ffffffff16565b61057d565b92506106c28383610e9790919063ffffffff16565b91508080600101915050610688565b508092505050919050565b565b60045481565b600b6020528060005260406000206000915090508060000160009054906101000a900473ffffffffffffffffffffffffffffffffffffffff16908060010154908060020154908060030160009054906101000a900460ff16905084565b60065481565b60085481565b600a5481565b565b60035481565b565b60028054600181600116156101000203166002900480601f0160208091040260200160405190810160405280929190818152602001828054600181600116156101000203166002900480156107f35780601f106107c8576101008083540402835291602001916107f3565b820191906000526020600020905b8154815290600101906020018083116107d657829003601f168201915b505050505081565b60008061080783610676565b9050806000809054906101000a900473ffffffffffffffffffffffffffffffffffffffff1673ffffffffffffffffffffffffffffffffffffffff166370a08231336040518263ffffffff1660e01b8152600401808273ffffffffffffffffffffffffffffffffffffffff1673ffffffffffffffffffffffffffffffffffffffff16815260200191505060206040518083038186803b1580156108a857600080fd5b505afa1580156108bc573d6000803e3d6000fd5b505050506040513d60208110156108d257600080fd5b81019080805190602001909291905050501015610957576040517f08c379a00000000000000000000000000000000000000000000000000000000081526004018080602001828103825260128152602001807f696e73756666696369656e742066756e6473000000000000000000000000000081525060200191505060405180910390fd5b6000809054906101000a900473ffffffffffffffffffffffffffffffffffffffff1673ffffffffffffffffffffffffffffffffffffffff166323b872dd3330846040518463ffffffff1660e01b8152600401808473ffffffffffffffffffffffffffffffffffffffff1673ffffffffffffffffffffffffffffffffffffffff1681526020018373ffffffffffffffffffffffffffffffffffffffff1673ffffffffffffffffffffffffffffffffffffffff1681526020018281526020019350505050602060405180830381600087803b158015610a3357600080fd5b505af1158015610a47573d6000803e3d6000fd5b505050506040513d6020811015610a5d57600080fd5b8101908080519060200190929190505050610ae0576040517f08c379a00000000000000000000000000000000000000000000000000000000081526004018080602001828103825260208152602001807f5472616e736665722044414920746f204d657263684974656d206661696c656481525060200191505060405180910390fd5b610aea8382610621565b610b3f576040517f08c379a00000000000000000000000000000000000000000000000000000000081526004018080602001828103825260228152602001806110406022913960400191505060405180910390fd5b6001915050919050565b60095481565b60075481565b60008060009054906101000a900473ffffffffffffffffffffffffffffffffffffffff1673ffffffffffffffffffffffffffffffffffffffff1663a9059cbb30846040518363ffffffff1660e01b8152600401808373ffffffffffffffffffffffffffffffffffffffff1673ffffffffffffffffffffffffffffffffffffffff16815260200182815260200192505050602060405180830381600087803b158015610bff57600080fd5b505af1158015610c13573d6000803e3d6000fd5b505050506040513d6020811015610c2957600080fd5b810190808051906020019092919050505050816000809054906101000a900473ffffffffffffffffffffffffffffffffffffffff1673ffffffffffffffffffffffffffffffffffffffff166370a08231306040518263ffffffff1660e01b8152600401808273ffffffffffffffffffffffffffffffffffffffff1673ffffffffffffffffffffffffffffffffffffffff16815260200191505060206040518083038186803b158015610cda57600080fd5b505afa158015610cee573d6000803e3d6000fd5b505050506040513d6020811015610d0457600080fd5b810190808051906020019092919050505014610d6b576040517f08c379a0000000000000000000000000000000000000000000000000000000008152600401808060200182810382526046815260200180610ffa6046913960600191505060405180910390fd5b60019050919050565b60055481565b565b600160009054906101000a900473ffffffffffffffffffffffffffffffffffffffff1681565b6000809054906101000a900473ffffffffffffffffffffffffffffffffffffffff1681565b6000610e0983836040518060400160405280601e81526020017f536166654d6174683a207375627472616374696f6e206f766572666c6f770000815250610f39565b905092915050565b600080831415610e245760009050610e91565b6000828402905082848281610e3557fe5b0414610e8c576040517f08c379a00000000000000000000000000000000000000000000000000000000081526004018080602001828103825260218152602001806110626021913960400191505060405180910390fd5b809150505b92915050565b600080828401905083811015610f15576040517f08c379a000000000000000000000000000000000000000000000000000000000815260040180806020018281038252601b8152602001807f536166654d6174683a206164646974696f6e206f766572666c6f77000000000081525060200191505060405180910390fd5b8091505092915050565b60008282600a0a850281610f2f57fe5b0490509392505050565b6000838311158290610fe6576040517f08c379a00000000000000000000000000000000000000000000000000000000081526004018080602001828103825283818151815260200191508051906020019080838360005b83811015610fab578082015181840152602081019050610f90565b50505050905090810190601f168015610fd85780820380516001836020036101000a031916815260200191505b509250505060405180910390fd5b506000838503905080915050939250505056fe54686520746f74616c207061796d656e7420616d6f756e7420686173206e6f74206265656e207472616e7366657272656420746f207468697320636f6e7472616374207965746661696c656420746f20757064617465207468652067726f62616c20737461746573536166654d6174683a206d756c7469706c69636174696f6e206f766572666c6f77a265627a7a7231582083e946ed08db57a445e1cd6c557c546e590baabcbc1398358f1a3f73e706bcdb64736f6c634300050e0032536166654d6174683a206d756c7469706c69636174696f6e206f766572666c6f77",
  "source": "pragma solidity ^0.5.14;\n\nimport \"openzeppelin-solidity/contracts/math/SafeMath.sol\";\nimport \"./Token.sol\";\n// import \"./IDai.sol\";\n\ncontract MerchItem {\n  using SafeMath for uint256;\n\n  Token public token;\n  // IDai dai;\n\n  struct Patron {\n    address patronAddress;\n    uint256 numOfPurchasedItem;\n    uint256 portionOfFunds;\n    bool hasDelivered;\n  }\n\n  address public admin;\n\n  string public nameOfItem;\n  uint256 public itemNumber;\n  uint256 public costOfItem;\n  uint256 public startPrice;\n  uint256 public rateOfDecline;\n  uint256 public totalSupplyOfItem;\n  uint256 public priceOfItem;\n  uint256 public totalAmountOfItemSold; // total amount of funds collected from patrons\n  uint256 public auctionLimit;\n  mapping(address => Patron) public patrons;\n\n  constructor(\n    string memory newItemName,\n    uint256 newItemCost,\n    uint256 newItemTotalSupply,\n    uint256 newStartPrice,\n    uint256 newRateOfDecline,\n    address tokenAddress\n    ) public {\n    nameOfItem = newItemName;\n    itemNumber = 1;\n    costOfItem = newItemCost;\n    totalSupplyOfItem = newItemTotalSupply;\n    startPrice = newStartPrice;\n    rateOfDecline = newRateOfDecline;\n    totalAmountOfItemSold = 0;\n    priceOfItem = _calculatePriceOfItem(itemNumber);\n\n    auctionLimit = 1 weeks;\n\n    admin = msg.sender;\n    // Token will be replaced with DAI contract when testing on test networks/mainnet\n    // DAIContract = Dai(daiAddress);\n    token = Token(tokenAddress);\n  }\n\n  function purchaseItem(uint256 numOfItem) public returns (bool) {\n    uint256 totalPayment = _calculateTotalPayment(numOfItem);\n    require(token.balanceOf(msg.sender) >= totalPayment, \"insufficient funds\");\n\n    require(token.transferFrom(msg.sender, address(this), totalPayment), \"Transfer DAI to MerchItem failed\");\n\n    // require(token.transfer(address(this), totalPayment), \"failed to the payment process\");\n\n    require(_updateStates(numOfItem, totalPayment), \"failed to update the grobal states\");\n\n    // require(_mappingPatronToList(), \"fail\");\n    // require(_calculatePortionOfFunds(), \"fail\");\n    // require(_extendAuctionTimeLimit(), \"fail\");\n    // require(_transferFundsToCompound(), \"fail\");\n    return true;\n  }\n\n  // Function to send/withdraw funds to a particular address\n\n  /**\n  distributes funds in this contract receiving from patrons\n  to them, 50% of product sale\n   */\n  function distributeFundsToPatrons() public pure {\n\n  }\n\n\n  /**\n  allows the creators/artists who up items to an auction to\n  claim the total sold amount in the auction, this function needs hasDelivered to be\n  true, only creators/artists can invoke, 40% of product sale\n   */\n  function claimTotalSellingValue() public pure {\n\n  }\n\n  /**\n  pays 10% of product sale to Operations\n   */\n  function payOperationalCost() public pure {\n\n  }\n\n  // - allows patrons to request to delivery an item they bought in an auction to the seller/designer, only a patron who bought an item can invoke\n  function deliveryRequest() public pure {\n\n  }\n\n  // - updates the state of hasDelivered to true, only a patron who bought an item can invoke\n  function receivedItem() public pure {\n\n  }\n\n  //////////////////////////\n  //                      //\n  //  Internal functions  //\n  //                      //\n  //////////////////////////\n\n\n  // - checks who is in the patron list\n  function _hasPurchasedItem() internal pure returns(bool) {\n    return true;\n  }\n\n  function _calculateTotalPayment(uint256 numOfItem) public returns (uint256) {\n    uint256 subTotal = 0;\n    uint256 totalPayment = 0;\n\n    for(uint256 i = 0; i < numOfItem; i++) {\n      subTotal = _calculatePriceOfItem(itemNumber.add(i));\n      totalPayment = totalPayment.add(subTotal);\n    }\n    return totalPayment;\n  }\n\n  function _calculatePriceOfItem(uint256 itemNum) public returns (uint256) {\n    uint256 upper = (startPrice.sub(costOfItem)).mul(2);\n    uint256 under = (rateOfDecline.mul(itemNum.sub(1))).add(2000000000000000000);\n    uint256 result = (_specialDiv(upper, under, 18)).add(costOfItem);\n    return result;\n  }\n\n  function _paymentForItem(uint256 totalPayment) public returns (bool) {\n    token.transfer(address(this), totalPayment);\n    require(token.balanceOf(address(this)) == totalPayment, \"The total payment amount has not been transferred to this contract yet\");\n    return true;\n  }\n\n  function _updateStates(uint256 numOfItem, uint256 totalPayment) public returns (bool) {\n    itemNumber = itemNumber.add(numOfItem);\n    totalAmountOfItemSold = totalAmountOfItemSold.add(totalPayment);\n    priceOfItem = _calculatePriceOfItem(itemNumber);\n    return true;\n  }\n\n  // - adds a patron struct to patrons list(mapping)\n  function _mappingPatronToList() internal pure returns(bool) {\n    // create a new Patron struct and push it to patrons(mapping)\n    return true;\n    \n  }\n\n  function _calculatePortionOfFunds() internal pure returns(bool) {\n    return true;\n\n  }\n\n  // - extends an auction adding 24 hours to the time limit\n  function _extendAuctionTimeLimit() internal pure returns(bool) {\n    return true;\n\n  }\n\n  // - deposits the funds collected from patrons to Compound to earn interest until the auction finishes\n  function _transferFundsToCompound() internal pure returns(bool) {\n    return true;\n\n  }\n\n    function _specialDiv(uint256 a, uint256 b, uint256 precision) internal view returns (uint256) {\n    return a * (10 ** precision) / b;\n  }\n\n}\n",
  "sourcePath": "/Users/khiga619/flex/SwagDao/contracts/MerchItem.sol",
  "compiler": {
    "name": "solc",
    "version": "0.5.14+commit.01f1aaa4.Emscripten.clang"
  },
  "schemaVersion": "3.0.16",
  "updatedAt": "2019-12-19T12:18:18.302Z",
  "devdoc": {
    "methods": {}
  },
  "userdoc": {
    "methods": {
      "claimTotalSellingValue()": {
        "notice": "allows the creators/artists who up items to an auction to claim the total sold amount in the auction, this function needs hasDelivered to be true, only creators/artists can invoke, 40% of product sale"
      },
      "distributeFundsToPatrons()": {
        "notice": "distributes funds in this contract receiving from patrons to them, 50% of product sale"
      },
      "payOperationalCost()": {
        "notice": "pays 10% of product sale to Operations"
      }
    }
  }
}