{
  "contractName": "MerchItem",
  "abi": [
    {
      "constant": true,
      "inputs": [],
      "name": "costOfItem",
      "outputs": [
        {
          "name": "",
          "type": "uint256"
        }
      ],
      "payable": false,
      "stateMutability": "view",
      "type": "function"
    },
    {
      "constant": true,
      "inputs": [
        {
          "name": "",
          "type": "address"
        }
      ],
      "name": "patrons",
      "outputs": [
        {
          "name": "patronAddress",
          "type": "address"
        },
        {
          "name": "numOfPurchasedItem",
          "type": "uint256"
        },
        {
          "name": "portionOfFunds",
          "type": "uint256"
        },
        {
          "name": "hasDelivered",
          "type": "bool"
        }
      ],
      "payable": false,
      "stateMutability": "view",
      "type": "function"
    },
    {
      "constant": true,
      "inputs": [],
      "name": "priceOfItem",
      "outputs": [
        {
          "name": "",
          "type": "uint256"
        }
      ],
      "payable": false,
      "stateMutability": "view",
      "type": "function"
    },
    {
      "constant": true,
      "inputs": [],
      "name": "auctionLimit",
      "outputs": [
        {
          "name": "",
          "type": "uint256"
        }
      ],
      "payable": false,
      "stateMutability": "view",
      "type": "function"
    },
    {
      "constant": true,
      "inputs": [],
      "name": "rateOfPricingDecline",
      "outputs": [
        {
          "name": "",
          "type": "uint256"
        }
      ],
      "payable": false,
      "stateMutability": "view",
      "type": "function"
    },
    {
      "constant": true,
      "inputs": [],
      "name": "itemNumber",
      "outputs": [
        {
          "name": "",
          "type": "uint256"
        }
      ],
      "payable": false,
      "stateMutability": "view",
      "type": "function"
    },
    {
      "constant": true,
      "inputs": [],
      "name": "nameOfItem",
      "outputs": [
        {
          "name": "",
          "type": "string"
        }
      ],
      "payable": false,
      "stateMutability": "view",
      "type": "function"
    },
    {
      "constant": true,
      "inputs": [],
      "name": "totalAmountOfItemSold",
      "outputs": [
        {
          "name": "",
          "type": "uint256"
        }
      ],
      "payable": false,
      "stateMutability": "view",
      "type": "function"
    },
    {
      "constant": true,
      "inputs": [],
      "name": "totalSupplyOfItem",
      "outputs": [
        {
          "name": "",
          "type": "uint256"
        }
      ],
      "payable": false,
      "stateMutability": "view",
      "type": "function"
    },
    {
      "constant": true,
      "inputs": [],
      "name": "startPrice",
      "outputs": [
        {
          "name": "",
          "type": "uint256"
        }
      ],
      "payable": false,
      "stateMutability": "view",
      "type": "function"
    },
    {
      "constant": true,
      "inputs": [],
      "name": "admin",
      "outputs": [
        {
          "name": "",
          "type": "address"
        }
      ],
      "payable": false,
      "stateMutability": "view",
      "type": "function"
    },
    {
      "constant": true,
      "inputs": [],
      "name": "token",
      "outputs": [
        {
          "name": "",
          "type": "address"
        }
      ],
      "payable": false,
      "stateMutability": "view",
      "type": "function"
    },
    {
      "inputs": [
        {
          "name": "newItemName",
          "type": "string"
        },
        {
          "name": "newItemCost",
          "type": "uint256"
        },
        {
          "name": "newItemTotalSupply",
          "type": "uint256"
        },
        {
          "name": "newStartPrice",
          "type": "uint256"
        },
        {
          "name": "newRateOfPricingDecline",
          "type": "uint256"
        },
        {
          "name": "tokenAddress",
          "type": "address"
        }
      ],
      "payable": false,
      "stateMutability": "nonpayable",
      "type": "constructor"
    },
    {
      "constant": true,
      "inputs": [
        {
          "name": "numOfItem",
          "type": "uint256"
        }
      ],
      "name": "purchaseItem",
      "outputs": [
        {
          "name": "",
          "type": "uint256"
        }
      ],
      "payable": false,
      "stateMutability": "view",
      "type": "function"
    },
    {
      "constant": true,
      "inputs": [],
      "name": "distributeFundsToPatrons",
      "outputs": [],
      "payable": false,
      "stateMutability": "pure",
      "type": "function"
    },
    {
      "constant": true,
      "inputs": [],
      "name": "claimTotalSellingValue",
      "outputs": [],
      "payable": false,
      "stateMutability": "pure",
      "type": "function"
    },
    {
      "constant": true,
      "inputs": [],
      "name": "payOperationalCost",
      "outputs": [],
      "payable": false,
      "stateMutability": "pure",
      "type": "function"
    },
    {
      "constant": true,
      "inputs": [],
      "name": "deliveryRequest",
      "outputs": [],
      "payable": false,
      "stateMutability": "pure",
      "type": "function"
    },
    {
      "constant": true,
      "inputs": [],
      "name": "receivedItem",
      "outputs": [],
      "payable": false,
      "stateMutability": "pure",
      "type": "function"
    },
    {
      "constant": false,
      "inputs": [
        {
          "name": "numOfItem",
          "type": "uint256"
        }
      ],
      "name": "_checkPaymentAbility",
      "outputs": [
        {
          "name": "",
          "type": "bool"
        }
      ],
      "payable": false,
      "stateMutability": "nonpayable",
      "type": "function"
    },
    {
      "constant": false,
      "inputs": [
        {
          "name": "itemNum",
          "type": "uint256"
        }
      ],
      "name": "_calculatePriceOfItem",
      "outputs": [
        {
          "name": "",
          "type": "uint256"
        }
      ],
      "payable": false,
      "stateMutability": "nonpayable",
      "type": "function"
    },
    {
      "constant": false,
      "inputs": [
        {
          "name": "totalPayment",
          "type": "uint256"
        }
      ],
      "name": "_userHasEnoughFunds",
      "outputs": [
        {
          "name": "",
          "type": "bool"
        }
      ],
      "payable": false,
      "stateMutability": "nonpayable",
      "type": "function"
    }
  ],
  "bytecode": "0x60806040523480156200001157600080fd5b506040516200154838038062001548833981018060405260c08110156200003757600080fd5b8101908080516401000000008111156200005057600080fd5b828101905060208101848111156200006757600080fd5b81518560018202830111640100000000821117156200008557600080fd5b505092919060200180519060200190929190805190602001909291908051906020019092919080519060200190929190805190602001909291905050508560029080519060200190620000da9291906200068d565b50600160038190555084600481905550836007819055508260058190555081600681905550600060098190555062000123600354620001c0640100000000026401000000009004565b60088190555062093a80600a8190555033600160006101000a81548173ffffffffffffffffffffffffffffffffffffffff021916908373ffffffffffffffffffffffffffffffffffffffff160217905550806000806101000a81548173ffffffffffffffffffffffffffffffffffffffff021916908373ffffffffffffffffffffffffffffffffffffffff1602179055505050505050506200073c565b6000620002df600454620002c26200025b60026200023e620001fb600189620002e66401000000000262000a59179091906401000000009004565b62000221600a600654620003416401000000000262000aa3179091906401000000009004565b6200039c6401000000000262000aed179091906401000000009004565b6200046d6401000000000262000bba179091906401000000009004565b620002a5600262000288600454600554620002e66401000000000262000a59179091906401000000009004565b6200039c6401000000000262000aed179091906401000000009004565b620003416401000000000262000aa3179091906401000000009004565b6200046d6401000000000262000bba179091906401000000009004565b9050919050565b60006200033983836040805190810160405280601e81526020017f536166654d6174683a207375627472616374696f6e206f766572666c6f770000815250620004f8640100000000026401000000009004565b905092915050565b60006200039483836040805190810160405280601a81526020017f536166654d6174683a206469766973696f6e206279207a65726f000000000000815250620005be640100000000026401000000009004565b905092915050565b600080831415620003b1576000905062000467565b60008284029050828482811515620003c557fe5b0414151562000462576040517f08c379a00000000000000000000000000000000000000000000000000000000081526004018080602001828103825260218152602001807f536166654d6174683a206d756c7469706c69636174696f6e206f766572666c6f81526020017f770000000000000000000000000000000000000000000000000000000000000081525060400191505060405180910390fd5b809150505b92915050565b6000808284019050838110151515620004ee576040517f08c379a000000000000000000000000000000000000000000000000000000000815260040180806020018281038252601b8152602001807f536166654d6174683a206164646974696f6e206f766572666c6f77000000000081525060200191505060405180910390fd5b8091505092915050565b60008383111582901515620005ab576040517f08c379a00000000000000000000000000000000000000000000000000000000081526004018080602001828103825283818151815260200191508051906020019080838360005b838110156200056f57808201518184015260208101905062000552565b50505050905090810190601f1680156200059d5780820380516001836020036101000a031916815260200191505b509250505060405180910390fd5b5060008385039050809150509392505050565b60008083118290151562000670576040517f08c379a00000000000000000000000000000000000000000000000000000000081526004018080602001828103825283818151815260200191508051906020019080838360005b838110156200063457808201518184015260208101905062000617565b50505050905090810190601f168015620006625780820380516001836020036101000a031916815260200191505b509250505060405180910390fd5b50600083858115156200067f57fe5b049050809150509392505050565b828054600181600116156101000203166002900490600052602060002090601f016020900481019282601f10620006d057805160ff191683800117855562000701565b8280016001018555821562000701579182015b8281111562000700578251825591602001919060010190620006e3565b5b50905062000710919062000714565b5090565b6200073991905b80821115620007355760008160009055506001016200071b565b5090565b90565b610dfc806200074c6000396000f3fe60806040526004361061011d576000357c0100000000000000000000000000000000000000000000000000000000900463ffffffff16806304fb2cd7146101225780631bd9421f146101715780631c0557b2146101c45780632539204b146101db5780632797d0a4146101f25780632ef463201461021d5780634202bbe0146102c757806344514a42146102f257806359e635d61461031d57806372b70acd146103345780637af7b5661461038757806382f94a69146103b25780638eaef827146103dd578063bc76293a146103f4578063d38ea5bf14610484578063d40dd3b6146104d3578063e96176b5146104fe578063f1a9af8914610529578063f6f920f514610554578063f851a4401461056b578063fc0c546a146105c2575b600080fd5b34801561012e57600080fd5b5061015b6004803603602081101561014557600080fd5b8101908080359060200190929190505050610619565b6040518082815260200191505060405180910390f35b34801561017d57600080fd5b506101aa6004803603602081101561019457600080fd5b81019080803590602001909291905050506106bf565b604051808215151515815260200191505060405180910390f35b3480156101d057600080fd5b506101d9610836565b005b3480156101e757600080fd5b506101f0610838565b005b3480156101fe57600080fd5b5061020761083a565b6040518082815260200191505060405180910390f35b34801561022957600080fd5b5061026c6004803603602081101561024057600080fd5b81019080803573ffffffffffffffffffffffffffffffffffffffff169060200190929190505050610840565b604051808573ffffffffffffffffffffffffffffffffffffffff1673ffffffffffffffffffffffffffffffffffffffff1681526020018481526020018381526020018215151515815260200194505050505060405180910390f35b3480156102d357600080fd5b506102dc61089d565b6040518082815260200191505060405180910390f35b3480156102fe57600080fd5b506103076108a3565b6040518082815260200191505060405180910390f35b34801561032957600080fd5b506103326108a9565b005b34801561034057600080fd5b5061036d6004803603602081101561035757600080fd5b81019080803590602001909291905050506108ab565b604051808215151515815260200191505060405180910390f35b34801561039357600080fd5b5061039c610947565b6040518082815260200191505060405180910390f35b3480156103be57600080fd5b506103c761094d565b6040518082815260200191505060405180910390f35b3480156103e957600080fd5b506103f2610953565b005b34801561040057600080fd5b50610409610955565b6040518080602001828103825283818151815260200191508051906020019080838360005b8381101561044957808201518184015260208101905061042e565b50505050905090810190601f1680156104765780820380516001836020036101000a031916815260200191505b509250505060405180910390f35b34801561049057600080fd5b506104bd600480360360208110156104a757600080fd5b81019080803590602001909291905050506109f3565b6040518082815260200191505060405180910390f35b3480156104df57600080fd5b506104e86109fa565b6040518082815260200191505060405180910390f35b34801561050a57600080fd5b50610513610a00565b6040518082815260200191505060405180910390f35b34801561053557600080fd5b5061053e610a06565b6040518082815260200191505060405180910390f35b34801561056057600080fd5b50610569610a0c565b005b34801561057757600080fd5b50610580610a0e565b604051808273ffffffffffffffffffffffffffffffffffffffff1673ffffffffffffffffffffffffffffffffffffffff16815260200191505060405180910390f35b3480156105ce57600080fd5b506105d7610a34565b604051808273ffffffffffffffffffffffffffffffffffffffff1673ffffffffffffffffffffffffffffffffffffffff16815260200191505060405180910390f35b60006106b86004546106aa6106726002610664610640600189610a5990919063ffffffff16565b610656600a600654610aa390919063ffffffff16565b610aed90919063ffffffff16565b610bba90919063ffffffff16565b61069c600261068e600454600554610a5990919063ffffffff16565b610aed90919063ffffffff16565b610aa390919063ffffffff16565b610bba90919063ffffffff16565b9050919050565b6000816000809054906101000a900473ffffffffffffffffffffffffffffffffffffffff1673ffffffffffffffffffffffffffffffffffffffff166370a08231336040518263ffffffff167c0100000000000000000000000000000000000000000000000000000000028152600401808273ffffffffffffffffffffffffffffffffffffffff1673ffffffffffffffffffffffffffffffffffffffff16815260200191505060206040518083038186803b15801561077c57600080fd5b505afa158015610790573d6000803e3d6000fd5b505050506040513d60208110156107a657600080fd5b81019080805190602001909291905050501015151561082d576040517f08c379a00000000000000000000000000000000000000000000000000000000081526004018080602001828103825260128152602001807f696e73756666696369656e742066756e6473000000000000000000000000000081525060200191505060405180910390fd5b60019050919050565b565b565b60045481565b600b6020528060005260406000206000915090508060000160009054906101000a900473ffffffffffffffffffffffffffffffffffffffff16908060010154908060020154908060030160009054906101000a900460ff16905084565b60085481565b600a5481565b565b60008060009050600080905060008090505b84811015610906576108e26108dd82600354610bba90919063ffffffff16565b610619565b92506108f78383610bba90919063ffffffff16565b915080806001019150506108bd565b50610910816106bf565b1561093b5761092a84600354610bba90919063ffffffff16565b600381905550600192505050610942565b6000925050505b919050565b60065481565b60035481565b565b60028054600181600116156101000203166002900480601f0160208091040260200160405190810160405280929190818152602001828054600181600116156101000203166002900480156109eb5780601f106109c0576101008083540402835291602001916109eb565b820191906000526020600020905b8154815290600101906020018083116109ce57829003601f168201915b505050505081565b6000919050565b60095481565b60075481565b60055481565b565b600160009054906101000a900473ffffffffffffffffffffffffffffffffffffffff1681565b6000809054906101000a900473ffffffffffffffffffffffffffffffffffffffff1681565b6000610a9b83836040805190810160405280601e81526020017f536166654d6174683a207375627472616374696f6e206f766572666c6f770000815250610c44565b905092915050565b6000610ae583836040805190810160405280601a81526020017f536166654d6174683a206469766973696f6e206279207a65726f000000000000815250610d06565b905092915050565b600080831415610b005760009050610bb4565b60008284029050828482811515610b1357fe5b04141515610baf576040517f08c379a00000000000000000000000000000000000000000000000000000000081526004018080602001828103825260218152602001807f536166654d6174683a206d756c7469706c69636174696f6e206f766572666c6f81526020017f770000000000000000000000000000000000000000000000000000000000000081525060400191505060405180910390fd5b809150505b92915050565b6000808284019050838110151515610c3a576040517f08c379a000000000000000000000000000000000000000000000000000000000815260040180806020018281038252601b8152602001807f536166654d6174683a206164646974696f6e206f766572666c6f77000000000081525060200191505060405180910390fd5b8091505092915050565b60008383111582901515610cf3576040517f08c379a00000000000000000000000000000000000000000000000000000000081526004018080602001828103825283818151815260200191508051906020019080838360005b83811015610cb8578082015181840152602081019050610c9d565b50505050905090810190601f168015610ce55780820380516001836020036101000a031916815260200191505b509250505060405180910390fd5b5060008385039050809150509392505050565b600080831182901515610db4576040517f08c379a00000000000000000000000000000000000000000000000000000000081526004018080602001828103825283818151815260200191508051906020019080838360005b83811015610d79578082015181840152602081019050610d5e565b50505050905090810190601f168015610da65780820380516001836020036101000a031916815260200191505b509250505060405180910390fd5b5060008385811515610dc257fe5b04905080915050939250505056fea165627a7a723058200ef7405003235ed441e4d5a9a8c66afd233cf38659e6ac3c12bcdbc83d5b6d0a0029",
  "source": "pragma solidity ^0.5.0;\n\nimport \"openzeppelin-solidity/contracts/math/SafeMath.sol\";\nimport \"./Token.sol\";\n// import \"./IDai.sol\";\n\ncontract MerchItem {\n  using SafeMath for uint256;\n\n  Token public token;\n  // IDai dai;\n\n  struct Patron {\n    address patronAddress;\n    uint256 numOfPurchasedItem;\n    uint256 portionOfFunds;\n    bool hasDelivered;\n  }\n\n  address public admin;\n\n  string public nameOfItem;\n  uint256 public itemNumber;\n  uint256 public costOfItem;\n  uint256 public startPrice;\n  uint256 public rateOfPricingDecline;\n  uint256 public totalSupplyOfItem;\n  uint256 public priceOfItem;\n  uint256 public totalAmountOfItemSold; // total amount of funds collected from patrons\n  uint256 public auctionLimit;\n  mapping(address => Patron) public patrons;\n\n  // constructor() public {\n  constructor(\n    string memory newItemName,\n    uint256 newItemCost,\n    uint256 newItemTotalSupply,\n    uint256 newStartPrice,\n    uint256 newRateOfPricingDecline,\n    address tokenAddress\n    ) public {\n    nameOfItem = newItemName;\n    itemNumber = 1;\n    costOfItem = newItemCost;\n    totalSupplyOfItem = newItemTotalSupply;\n    startPrice = newStartPrice;\n    rateOfPricingDecline = newRateOfPricingDecline;\n    totalAmountOfItemSold = 0;\n    priceOfItem = _calculatePriceOfItem(itemNumber);\n    auctionLimit = 1 weeks;\n\n    admin = msg.sender;\n    // Token will be replaced with Dai contract when testing on test networks/mainnet\n    // DAIContract = Dai(daiAddress);\n    token = Token(tokenAddress);\n  }\n\n  function purchaseItem(uint256 numOfItem) public view returns (uint256) {\n    // require(_checkPaymentAbility(), \"user does not have sufficient funds\");\n    // require(_mappingPatronToList(), \"fail\");\n    // require(_calculatePortionOfFunds(), \"fail\");\n    // require(_extendAuctionTimeLimit(), \"fail\");\n    // require(_transferFundsToCompound(), \"fail\");\n    // return true;\n  }\n\n  // Function to send/withdraw funds to a particular address\n\n  /**\n  distributes funds in this contract receiving from patrons\n  to them, 50% of product sale\n   */\n  function distributeFundsToPatrons() public pure {\n\n  }\n\n\n  /**\n  allows the creators/artists who up items to an auction to\n  claim the total sold amount in the auction, this function needs hasDelivered to be\n  true, only creators/artists can invoke, 40% of product sale\n   */\n  function claimTotalSellingValue() public pure {\n\n  }\n\n  /**\n  pays 10% of product sale to Operations\n   */\n  function payOperationalCost() public pure {\n\n  }\n\n  // - allows patrons to request to delivery an item they bought in an auction to the seller/designer, only a patron who bought an item can invoke\n  function deliveryRequest() public pure {\n\n  }\n\n  // - updates the state of hasDelivered to true, only a patron who bought an item can invoke\n  function receivedItem() public pure {\n\n  }\n\n  //////////////////////////\n  //                      //\n  //  Internal functions  //\n  //                      //\n  //////////////////////////\n\n\n  // - checks who is in the patron list\n  function _hasPurchasedItem() internal pure returns(bool) {\n    return true;\n  }\n\n  function _checkPaymentAbility(uint256 numOfItem) public returns (bool) {\n    uint256 subTotal = 0;\n    uint256 totalPayment = 0;\n\n    for(uint256 i = 0; i < numOfItem; i++) {\n      subTotal = _calculatePriceOfItem(itemNumber.add(i));\n      totalPayment = totalPayment.add(subTotal);\n    }\n\n    if (_userHasEnoughFunds(totalPayment)) {\n      itemNumber = itemNumber.add(numOfItem);\n      return true;\n    }\n    return false;\n  }\n\n  function _calculatePriceOfItem(uint256 itemNum) public returns (uint256) {\n    return startPrice.sub(costOfItem).mul(2).div((rateOfPricingDecline.div(10).mul(itemNum.sub(1)).add(2))).add(costOfItem);\n  }\n  \n  // - checks if the payment amount is enough to buy an item  \n  function _userHasEnoughFunds(uint256 totalPayment) public returns (bool) {\n    // check if the user's DAI balance is greater than the payment amount\n    require(token.balanceOf(msg.sender) >= totalPayment, \"insufficient funds\");\n\n    return true;\n  }\n  \n  // - adds a patron struct to patrons list(mapping)\n  function _mappingPatronToList() internal pure returns(bool) {\n    // create a new Patron struct and push it to patrons(mapping)\n    return true;\n    \n  }\n\n  function _calculatePortionOfFunds() internal pure returns(bool) {\n    return true;\n\n  }\n\n  // - extends an auction adding 24 hours to the time limit\n  function _extendAuctionTimeLimit() internal pure returns(bool) {\n    return true;\n\n  }\n\n  // - deposits the funds collected from patrons to Compound to earn interest until the auction finishes\n  function _transferFundsToCompound() internal pure returns(bool) {\n    return true;\n\n  }\n\n\n}\n",
  "sourcePath": "/Users/khiga619/flex/SwagDao/contracts/MerchItem.sol",
  "compiler": {
    "name": "solc",
    "version": "0.5.0+commit.1d4f565a.Emscripten.clang"
  },
  "schemaVersion": "3.0.16",
  "updatedAt": "2019-12-13T05:09:19.164Z",
  "devdoc": {
    "methods": {}
  },
  "userdoc": {
    "methods": {
      "claimTotalSellingValue()": {
        "notice": "allows the creators/artists who up items to an auction to claim the total sold amount in the auction, this function needs hasDelivered to be true, only creators/artists can invoke, 40% of product sale"
      },
      "distributeFundsToPatrons()": {
        "notice": "distributes funds in this contract receiving from patrons to them, 50% of product sale"
      },
      "payOperationalCost()": {
        "notice": "pays 10% of product sale to Operations"
      }
    }
  }
}