{
  "contractName": "MerchItem",
  "abi": [
    {
      "constant": true,
      "inputs": [],
      "name": "costOfItem",
      "outputs": [
        {
          "name": "",
          "type": "uint256"
        }
      ],
      "payable": false,
      "stateMutability": "view",
      "type": "function"
    },
    {
      "constant": true,
      "inputs": [
        {
          "name": "",
          "type": "address"
        }
      ],
      "name": "patrons",
      "outputs": [
        {
          "name": "patronAddress",
          "type": "address"
        },
        {
          "name": "numOfPurchasedItem",
          "type": "uint256"
        },
        {
          "name": "portionOfFunds",
          "type": "uint256"
        },
        {
          "name": "hasDelivered",
          "type": "bool"
        }
      ],
      "payable": false,
      "stateMutability": "view",
      "type": "function"
    },
    {
      "constant": true,
      "inputs": [],
      "name": "DAIContract",
      "outputs": [
        {
          "name": "",
          "type": "address"
        }
      ],
      "payable": false,
      "stateMutability": "view",
      "type": "function"
    },
    {
      "constant": true,
      "inputs": [],
      "name": "priceOfItem",
      "outputs": [
        {
          "name": "",
          "type": "uint256"
        }
      ],
      "payable": false,
      "stateMutability": "view",
      "type": "function"
    },
    {
      "constant": true,
      "inputs": [],
      "name": "auctionLimit",
      "outputs": [
        {
          "name": "",
          "type": "uint256"
        }
      ],
      "payable": false,
      "stateMutability": "view",
      "type": "function"
    },
    {
      "constant": true,
      "inputs": [],
      "name": "rateOfPricingDecline",
      "outputs": [
        {
          "name": "",
          "type": "uint256"
        }
      ],
      "payable": false,
      "stateMutability": "view",
      "type": "function"
    },
    {
      "constant": true,
      "inputs": [],
      "name": "maximumAdditionalPrice",
      "outputs": [
        {
          "name": "",
          "type": "uint256"
        }
      ],
      "payable": false,
      "stateMutability": "view",
      "type": "function"
    },
    {
      "constant": true,
      "inputs": [],
      "name": "nameOfItem",
      "outputs": [
        {
          "name": "",
          "type": "string"
        }
      ],
      "payable": false,
      "stateMutability": "view",
      "type": "function"
    },
    {
      "constant": true,
      "inputs": [],
      "name": "totalAmountOfItemSold",
      "outputs": [
        {
          "name": "",
          "type": "uint256"
        }
      ],
      "payable": false,
      "stateMutability": "view",
      "type": "function"
    },
    {
      "constant": true,
      "inputs": [],
      "name": "totalSupplyOfItem",
      "outputs": [
        {
          "name": "",
          "type": "uint256"
        }
      ],
      "payable": false,
      "stateMutability": "view",
      "type": "function"
    },
    {
      "constant": true,
      "inputs": [],
      "name": "admin",
      "outputs": [
        {
          "name": "",
          "type": "address"
        }
      ],
      "payable": false,
      "stateMutability": "view",
      "type": "function"
    },
    {
      "inputs": [
        {
          "name": "newItemName",
          "type": "string"
        },
        {
          "name": "newItemCost",
          "type": "uint256"
        },
        {
          "name": "newItemTotalSupply",
          "type": "uint256"
        },
        {
          "name": "newMaximumAdditionalPrice",
          "type": "uint256"
        },
        {
          "name": "newRateOfPricingDecline",
          "type": "uint256"
        },
        {
          "name": "daiAddress",
          "type": "address"
        }
      ],
      "payable": false,
      "stateMutability": "nonpayable",
      "type": "constructor"
    },
    {
      "constant": false,
      "inputs": [
        {
          "name": "numOfItem",
          "type": "uint256"
        },
        {
          "name": "daiPayment",
          "type": "uint256"
        }
      ],
      "name": "purchaseItem",
      "outputs": [
        {
          "name": "",
          "type": "bool"
        }
      ],
      "payable": false,
      "stateMutability": "nonpayable",
      "type": "function"
    },
    {
      "constant": false,
      "inputs": [],
      "name": "distributeFundsToPatrons",
      "outputs": [],
      "payable": false,
      "stateMutability": "nonpayable",
      "type": "function"
    },
    {
      "constant": false,
      "inputs": [],
      "name": "claimTotalSellingValue",
      "outputs": [],
      "payable": false,
      "stateMutability": "nonpayable",
      "type": "function"
    },
    {
      "constant": false,
      "inputs": [],
      "name": "payOperationalCost",
      "outputs": [],
      "payable": false,
      "stateMutability": "nonpayable",
      "type": "function"
    },
    {
      "constant": false,
      "inputs": [],
      "name": "deliveryRequest",
      "outputs": [],
      "payable": false,
      "stateMutability": "nonpayable",
      "type": "function"
    },
    {
      "constant": false,
      "inputs": [],
      "name": "receivedItem",
      "outputs": [],
      "payable": false,
      "stateMutability": "nonpayable",
      "type": "function"
    }
  ],
  "bytecode": "0x60806040523480156200001157600080fd5b50604051620012b9380380620012b9833981018060405260c08110156200003757600080fd5b8101908080516401000000008111156200005057600080fd5b828101905060208101848111156200006757600080fd5b81518560018202830111640100000000821117156200008557600080fd5b505092919060200180519060200190929190805190602001909291908051906020019092919080519060200190929190805190602001909291905050508560029080519060200190620000da929190620004fa565b50846003819055508360068190555082600481905550816005819055506000600881905550620001d7600354620001ba6200017760026200015a6008546200013d600a600554620002746401000000000262000a69179091906401000000009004565b620002cf6401000000000262000ab3179091906401000000009004565b620003a06401000000000262000b80179091906401000000009004565b6200019d6002600454620002cf6401000000000262000ab3179091906401000000009004565b620002746401000000000262000a69179091906401000000009004565b620003a06401000000000262000b80179091906401000000009004565b60078190555062093a8060098190555033600160006101000a81548173ffffffffffffffffffffffffffffffffffffffff021916908373ffffffffffffffffffffffffffffffffffffffff160217905550806000806101000a81548173ffffffffffffffffffffffffffffffffffffffff021916908373ffffffffffffffffffffffffffffffffffffffff160217905550505050505050620005a9565b6000620002c783836040805190810160405280601a81526020017f536166654d6174683a206469766973696f6e206279207a65726f0000000000008152506200042b640100000000026401000000009004565b905092915050565b600080831415620002e457600090506200039a565b60008284029050828482811515620002f857fe5b0414151562000395576040517f08c379a00000000000000000000000000000000000000000000000000000000081526004018080602001828103825260218152602001807f536166654d6174683a206d756c7469706c69636174696f6e206f766572666c6f81526020017f770000000000000000000000000000000000000000000000000000000000000081525060400191505060405180910390fd5b809150505b92915050565b600080828401905083811015151562000421576040517f08c379a000000000000000000000000000000000000000000000000000000000815260040180806020018281038252601b8152602001807f536166654d6174683a206164646974696f6e206f766572666c6f77000000000081525060200191505060405180910390fd5b8091505092915050565b600080831182901515620004dd576040517f08c379a00000000000000000000000000000000000000000000000000000000081526004018080602001828103825283818151815260200191508051906020019080838360005b83811015620004a157808201518184015260208101905062000484565b50505050905090810190601f168015620004cf5780820380516001836020036101000a031916815260200191505b509250505060405180910390fd5b5060008385811515620004ec57fe5b049050809150509392505050565b828054600181600116156101000203166002900490600052602060002090601f016020900481019282601f106200053d57805160ff19168380011785556200056e565b828001600101855582156200056e579182015b828111156200056d57825182559160200191906001019062000550565b5b5090506200057d919062000581565b5090565b620005a691905b80821115620005a257600081600090555060010162000588565b5090565b90565b610d0080620005b96000396000f3fe6080604052600436106100f1576000357c0100000000000000000000000000000000000000000000000000000000900463ffffffff1680631c0557b2146100f65780632539204b1461010d5780632797d0a4146101245780632ef463201461014f5780633c0f5fbe146101f95780634202bbe01461025057806344514a421461027b57806359e635d6146102a65780637af7b566146102bd5780638eaef827146102e85780639e599954146102ff578063bc76293a1461032a578063d40dd3b6146103ba578063e0675698146103e5578063e96176b514610442578063f6f920f51461046d578063f851a44014610484575b600080fd5b34801561010257600080fd5b5061010b6104db565b005b34801561011957600080fd5b506101226104dd565b005b34801561013057600080fd5b506101396104df565b6040518082815260200191505060405180910390f35b34801561015b57600080fd5b5061019e6004803603602081101561017257600080fd5b81019080803573ffffffffffffffffffffffffffffffffffffffff1690602001909291905050506104e5565b604051808573ffffffffffffffffffffffffffffffffffffffff1673ffffffffffffffffffffffffffffffffffffffff1681526020018481526020018381526020018215151515815260200194505050505060405180910390f35b34801561020557600080fd5b5061020e610542565b604051808273ffffffffffffffffffffffffffffffffffffffff1673ffffffffffffffffffffffffffffffffffffffff16815260200191505060405180910390f35b34801561025c57600080fd5b50610265610567565b6040518082815260200191505060405180910390f35b34801561028757600080fd5b5061029061056d565b6040518082815260200191505060405180910390f35b3480156102b257600080fd5b506102bb610573565b005b3480156102c957600080fd5b506102d2610575565b6040518082815260200191505060405180910390f35b3480156102f457600080fd5b506102fd61057b565b005b34801561030b57600080fd5b5061031461057d565b6040518082815260200191505060405180910390f35b34801561033657600080fd5b5061033f610583565b6040518080602001828103825283818151815260200191508051906020019080838360005b8381101561037f578082015181840152602081019050610364565b50505050905090810190601f1680156103ac5780820380516001836020036101000a031916815260200191505b509250505060405180910390f35b3480156103c657600080fd5b506103cf610621565b6040518082815260200191505060405180910390f35b3480156103f157600080fd5b506104286004803603604081101561040857600080fd5b810190808035906020019092919080359060200190929190505050610627565b604051808215151515815260200191505060405180910390f35b34801561044e57600080fd5b506104576108a0565b6040518082815260200191505060405180910390f35b34801561047957600080fd5b506104826108a6565b005b34801561049057600080fd5b506104996108a8565b604051808273ffffffffffffffffffffffffffffffffffffffff1673ffffffffffffffffffffffffffffffffffffffff16815260200191505060405180910390f35b565b565b60035481565b600a6020528060005260406000206000915090508060000160009054906101000a900473ffffffffffffffffffffffffffffffffffffffff16908060010154908060020154908060030160009054906101000a900460ff16905084565b6000809054906101000a900473ffffffffffffffffffffffffffffffffffffffff1681565b60075481565b60095481565b565b60055481565b565b60045481565b60028054600181600116156101000203166002900480601f0160208091040260200160405190810160405280929190818152602001828054600181600116156101000203166002900480156106195780601f106105ee57610100808354040283529160200191610619565b820191906000526020600020905b8154815290600101906020018083116105fc57829003601f168201915b505050505081565b60085481565b6000610632826108ce565b15156106a6576040517f08c379a00000000000000000000000000000000000000000000000000000000081526004018080602001828103825260048152602001807f6661696c0000000000000000000000000000000000000000000000000000000081525060200191505060405180910390fd5b6106ae610a45565b1515610722576040517f08c379a00000000000000000000000000000000000000000000000000000000081526004018080602001828103825260048152602001807f6661696c0000000000000000000000000000000000000000000000000000000081525060200191505060405180910390fd5b61072a610a4e565b151561079e576040517f08c379a00000000000000000000000000000000000000000000000000000000081526004018080602001828103825260048152602001807f6661696c0000000000000000000000000000000000000000000000000000000081525060200191505060405180910390fd5b6107a6610a57565b151561081a576040517f08c379a00000000000000000000000000000000000000000000000000000000081526004018080602001828103825260048152602001807f6661696c0000000000000000000000000000000000000000000000000000000081525060200191505060405180910390fd5b610822610a60565b1515610896576040517f08c379a00000000000000000000000000000000000000000000000000000000081526004018080602001828103825260048152602001807f6661696c0000000000000000000000000000000000000000000000000000000081525060200191505060405180910390fd5b6001905092915050565b60065481565b565b600160009054906101000a900473ffffffffffffffffffffffffffffffffffffffff1681565b6000816000809054906101000a900473ffffffffffffffffffffffffffffffffffffffff1673ffffffffffffffffffffffffffffffffffffffff166370a08231336040518263ffffffff167c0100000000000000000000000000000000000000000000000000000000028152600401808273ffffffffffffffffffffffffffffffffffffffff1673ffffffffffffffffffffffffffffffffffffffff16815260200191505060206040518083038186803b15801561098b57600080fd5b505afa15801561099f573d6000803e3d6000fd5b505050506040513d60208110156109b557600080fd5b810190808051906020019092919050505010151515610a3c576040517f08c379a00000000000000000000000000000000000000000000000000000000081526004018080602001828103825260128152602001807f696e73756666696369656e742066756e6473000000000000000000000000000081525060200191505060405180910390fd5b60019050919050565b60006001905090565b60006001905090565b60006001905090565b60006001905090565b6000610aab83836040805190810160405280601a81526020017f536166654d6174683a206469766973696f6e206279207a65726f000000000000815250610c0a565b905092915050565b600080831415610ac65760009050610b7a565b60008284029050828482811515610ad957fe5b04141515610b75576040517f08c379a00000000000000000000000000000000000000000000000000000000081526004018080602001828103825260218152602001807f536166654d6174683a206d756c7469706c69636174696f6e206f766572666c6f81526020017f770000000000000000000000000000000000000000000000000000000000000081525060400191505060405180910390fd5b809150505b92915050565b6000808284019050838110151515610c00576040517f08c379a000000000000000000000000000000000000000000000000000000000815260040180806020018281038252601b8152602001807f536166654d6174683a206164646974696f6e206f766572666c6f77000000000081525060200191505060405180910390fd5b8091505092915050565b600080831182901515610cb8576040517f08c379a00000000000000000000000000000000000000000000000000000000081526004018080602001828103825283818151815260200191508051906020019080838360005b83811015610c7d578082015181840152602081019050610c62565b50505050905090810190601f168015610caa5780820380516001836020036101000a031916815260200191505b509250505060405180910390fd5b5060008385811515610cc657fe5b04905080915050939250505056fea165627a7a72305820dfa2f79a23f57cc33402a5bdf8b4893f425128b3e2f326a8b7098dcdfaa24d840029",
  "source": "pragma solidity ^0.5.0;\n\nimport \"openzeppelin-solidity/contracts/math/SafeMath.sol\";\n// import \"./IDai.sol\";\nimport \"./Dai.sol\";\n\ncontract MerchItem {\n  using SafeMath for uint256;\n\n  Dai public DAIContract;\n\n  struct Patron {\n    address patronAddress;\n    uint256 numOfPurchasedItem;\n    uint256 portionOfFunds;\n    bool hasDelivered;\n  }\n\n  address public admin;\n\n  string public nameOfItem;\n  uint256 public costOfItem;\n  uint256 public maximumAdditionalPrice;\n  uint256 public rateOfPricingDecline; // accepts from 1 to 20, and divide it by 10 when calculating priceOfItem\n  uint256 public totalSupplyOfItem;\n  uint256 public priceOfItem;\n  uint256 public totalAmountOfItemSold; // total amount of funds collected from patrons\n  uint256 public auctionLimit;\n  mapping(address => Patron) public patrons;\n\n  // constructor() public {\n  constructor(\n    string memory newItemName,\n    uint256 newItemCost,\n    uint256 newItemTotalSupply,\n    uint256 newMaximumAdditionalPrice,\n    uint256 newRateOfPricingDecline,\n    address daiAddress\n    ) public {\n    nameOfItem = newItemName;\n    costOfItem = newItemCost;\n    totalSupplyOfItem = newItemTotalSupply;\n    maximumAdditionalPrice = newMaximumAdditionalPrice;\n    rateOfPricingDecline = newRateOfPricingDecline;\n    totalAmountOfItemSold = 0;\n    priceOfItem = (maximumAdditionalPrice.mul(2).div((rateOfPricingDecline.div(10).mul(totalAmountOfItemSold).add(2)))).add(costOfItem);\n    auctionLimit = 1 weeks;\n\n    admin = msg.sender;\n    DAIContract = Dai(daiAddress);\n  }\n\n  function purchaseItem(uint256 numOfItem, uint256 daiPayment) public returns (bool) {\n    require(_checkPaymentAmount(daiPayment), \"fail\");\n    require(_mappingPatronToList(), \"fail\");\n    require(_calculatePortionOfFunds(), \"fail\");\n    require(_extendAuctionTimeLimit(), \"fail\");\n    require(_transferFundsToCompound(), \"fail\");\n    return true;\n  }\n\n  // Function to send/withdraw funds to a particular address\n\n  /**\n  distributes funds in this contract receiving from patrons\n  to them, 50% of product sale\n   */\n  function distributeFundsToPatrons() public {\n\n  }\n\n\n  /**\n  allows the creators/artists who up items to an auction to\n  claim the total sold amount in the auction, this function needs hasDelivered to be\n  true, only creators/artists can invoke, 40% of product sale\n   */\n  function claimTotalSellingValue() public {\n\n  }\n\n  /**\n  pays 10% of product sale to Operations\n   */\n  function payOperationalCost() public {\n\n  }\n\n  // - allows patrons to request to delivery an item they bought in an auction to the seller/designer, only a patron who bought an item can invoke\n  function deliveryRequest() public {\n\n  }\n\n  // - updates the state of hasDelivered to true, only a patron who bought an item can invoke\n  function receivedItem() public {\n\n  }\n\n  //////////////////////////\n  //                      //\n  //  Internal functions  //\n  //                      //\n  //////////////////////////\n\n\n  // - checks who is in the patron list\n  function _hasPurchasedItem() internal pure returns(bool) {\n    return true;\n  }\n\n  // - checks if the payment amount is enough to buy an item  \n  function _checkPaymentAmount(uint256 daiPayment) internal view returns (bool) {\n    // check if the user's DAI balance is greater than the payment amount\n    require(DAIContract.balanceOf(msg.sender) >= daiPayment, \"insufficient funds\");\n\n    // get the current item price and check if the purchaser's DAI balance is sufficient (one item vs purchaser balance)\n\n    // if an user want to buy more than two items,\n    // you should calculate the item price after the current purhcasing(loop until the purchasing finish)\n\n    // create a new Patron struct and push it to patrons(mapping)\n    return true;\n  }\n  \n  // - adds a patron struct to patrons list(mapping)\n  function _mappingPatronToList() internal pure returns(bool) {\n    return true;\n    \n  }\n\n  function _calculatePortionOfFunds() internal pure returns(bool) {\n    return true;\n\n  }\n\n  // - extends an auction adding 24 hours to the time limit\n  function _extendAuctionTimeLimit() internal pure returns(bool) {\n    return true;\n\n  }\n\n  // - deposits the funds collected from patrons to Compound to earn interest until the auction finishes\n  function _transferFundsToCompound() internal pure returns(bool) {\n    return true;\n\n  }\n\n\n}\n",
  "sourcePath": "/Users/khiga619/flex/SwagDao/contracts/MerchItem.sol",
  "compiler": {
    "name": "solc",
    "version": "0.5.0+commit.1d4f565a.Emscripten.clang"
  },
  "schemaVersion": "3.0.16",
  "updatedAt": "2019-12-09T06:34:43.610Z",
  "devdoc": {
    "methods": {}
  },
  "userdoc": {
    "methods": {
      "claimTotalSellingValue()": {
        "notice": "allows the creators/artists who up items to an auction to claim the total sold amount in the auction, this function needs hasDelivered to be true, only creators/artists can invoke, 40% of product sale"
      },
      "distributeFundsToPatrons()": {
        "notice": "distributes funds in this contract receiving from patrons to them, 50% of product sale"
      },
      "payOperationalCost()": {
        "notice": "pays 10% of product sale to Operations"
      }
    }
  }
}