{
  "contractName": "MerchItem",
  "abi": [
    {
      "inputs": [
        {
          "internalType": "string",
          "name": "newNameOfItem",
          "type": "string"
        },
        {
          "internalType": "uint256",
          "name": "newCostOfItem",
          "type": "uint256"
        },
        {
          "internalType": "uint256",
          "name": "newTotalSupplyOfItem",
          "type": "uint256"
        },
        {
          "internalType": "uint256",
          "name": "newStartPrice",
          "type": "uint256"
        },
        {
          "internalType": "uint256",
          "name": "newRateOfDecline",
          "type": "uint256"
        },
        {
          "internalType": "address",
          "name": "tokenAddress",
          "type": "address"
        }
      ],
      "payable": false,
      "stateMutability": "nonpayable",
      "type": "constructor"
    },
    {
      "constant": true,
      "inputs": [],
      "name": "admin",
      "outputs": [
        {
          "internalType": "address",
          "name": "",
          "type": "address"
        }
      ],
      "payable": false,
      "stateMutability": "view",
      "type": "function"
    },
    {
      "constant": true,
      "inputs": [],
      "name": "auctionLimit",
      "outputs": [
        {
          "internalType": "uint256",
          "name": "",
          "type": "uint256"
        }
      ],
      "payable": false,
      "stateMutability": "view",
      "type": "function"
    },
    {
      "constant": true,
      "inputs": [],
      "name": "costOfItem",
      "outputs": [
        {
          "internalType": "uint256",
          "name": "",
          "type": "uint256"
        }
      ],
      "payable": false,
      "stateMutability": "view",
      "type": "function"
    },
    {
      "constant": true,
      "inputs": [],
      "name": "itemNumber",
      "outputs": [
        {
          "internalType": "uint256",
          "name": "",
          "type": "uint256"
        }
      ],
      "payable": false,
      "stateMutability": "view",
      "type": "function"
    },
    {
      "constant": true,
      "inputs": [],
      "name": "nameOfItem",
      "outputs": [
        {
          "internalType": "string",
          "name": "",
          "type": "string"
        }
      ],
      "payable": false,
      "stateMutability": "view",
      "type": "function"
    },
    {
      "constant": true,
      "inputs": [
        {
          "internalType": "address",
          "name": "",
          "type": "address"
        }
      ],
      "name": "patrons",
      "outputs": [
        {
          "internalType": "address",
          "name": "patronAddress",
          "type": "address"
        },
        {
          "internalType": "uint256",
          "name": "numOfPurchasedItem",
          "type": "uint256"
        },
        {
          "internalType": "uint256",
          "name": "portionOfFunds",
          "type": "uint256"
        }
      ],
      "payable": false,
      "stateMutability": "view",
      "type": "function"
    },
    {
      "constant": true,
      "inputs": [],
      "name": "priceOfItem",
      "outputs": [
        {
          "internalType": "uint256",
          "name": "",
          "type": "uint256"
        }
      ],
      "payable": false,
      "stateMutability": "view",
      "type": "function"
    },
    {
      "constant": true,
      "inputs": [],
      "name": "rateOfDecline",
      "outputs": [
        {
          "internalType": "uint256",
          "name": "",
          "type": "uint256"
        }
      ],
      "payable": false,
      "stateMutability": "view",
      "type": "function"
    },
    {
      "constant": true,
      "inputs": [],
      "name": "startPrice",
      "outputs": [
        {
          "internalType": "uint256",
          "name": "",
          "type": "uint256"
        }
      ],
      "payable": false,
      "stateMutability": "view",
      "type": "function"
    },
    {
      "constant": true,
      "inputs": [],
      "name": "token",
      "outputs": [
        {
          "internalType": "contract Token",
          "name": "",
          "type": "address"
        }
      ],
      "payable": false,
      "stateMutability": "view",
      "type": "function"
    },
    {
      "constant": true,
      "inputs": [],
      "name": "totalAmountOfItemSold",
      "outputs": [
        {
          "internalType": "uint256",
          "name": "",
          "type": "uint256"
        }
      ],
      "payable": false,
      "stateMutability": "view",
      "type": "function"
    },
    {
      "constant": true,
      "inputs": [],
      "name": "totalSupplyOfItem",
      "outputs": [
        {
          "internalType": "uint256",
          "name": "",
          "type": "uint256"
        }
      ],
      "payable": false,
      "stateMutability": "view",
      "type": "function"
    },
    {
      "constant": false,
      "inputs": [
        {
          "internalType": "uint256",
          "name": "numOfItem",
          "type": "uint256"
        }
      ],
      "name": "purchaseItem",
      "outputs": [
        {
          "internalType": "bool",
          "name": "",
          "type": "bool"
        }
      ],
      "payable": false,
      "stateMutability": "nonpayable",
      "type": "function"
    },
    {
      "constant": true,
      "inputs": [],
      "name": "distributeFundsToPatrons",
      "outputs": [],
      "payable": false,
      "stateMutability": "pure",
      "type": "function"
    },
    {
      "constant": true,
      "inputs": [],
      "name": "claimTotalSellingValue",
      "outputs": [],
      "payable": false,
      "stateMutability": "pure",
      "type": "function"
    },
    {
      "constant": true,
      "inputs": [],
      "name": "payOperationalCost",
      "outputs": [],
      "payable": false,
      "stateMutability": "pure",
      "type": "function"
    },
    {
      "constant": true,
      "inputs": [],
      "name": "deliveryRequest",
      "outputs": [],
      "payable": false,
      "stateMutability": "pure",
      "type": "function"
    },
    {
      "constant": true,
      "inputs": [],
      "name": "receivedItem",
      "outputs": [],
      "payable": false,
      "stateMutability": "pure",
      "type": "function"
    }
  ],
  "bytecode": "0x60806040523480156200001157600080fd5b506040516200130b3803806200130b833981810160405260c08110156200003757600080fd5b81019080805160405193929190846401000000008211156200005857600080fd5b838201915060208201858111156200006f57600080fd5b82518660018202830111640100000000821117156200008d57600080fd5b8083526020830192505050908051906020019080838360005b83811015620000c3578082015181840152602081019050620000a6565b50505050905090810190601f168015620000f15780820380516001836020036101000a031916815260200191505b5060405260200180519060200190929190805190602001909291908051906020019092919080519060200190929190805190602001909291905050508560029080519060200190620001459291906200053d565b508460038190555083600481905550826005819055508160068190555060016007819055506000600881905550620001856007546200022260201b60201c565b60098190555062093a80600a8190555033600160006101000a81548173ffffffffffffffffffffffffffffffffffffffff021916908373ffffffffffffffffffffffffffffffffffffffff160217905550806000806101000a81548173ffffffffffffffffffffffffffffffffffffffff021916908373ffffffffffffffffffffffffffffffffffffffff160217905550505050505050620005ec565b6000806200025d600262000249600354600554620002f860201b62000acc1790919060201c565b6200034a60201b62000b161790919060201c565b90506000620002b8671bc16d674ec80000620002a46200028d600188620002f860201b62000acc1790919060201c565b6006546200034a60201b62000b161790919060201c565b620003d560201b620009a01790919060201c565b90506000620002eb600354620002d7858560126200045e60201b60201c565b620003d560201b620009a01790919060201c565b9050809350505050919050565b60006200034283836040518060400160405280601e81526020017f536166654d6174683a207375627472616374696f6e206f766572666c6f7700008152506200047960201b60201c565b905092915050565b6000808314156200035f5760009050620003cf565b60008284029050828482816200037157fe5b0414620003ca576040517f08c379a0000000000000000000000000000000000000000000000000000000008152600401808060200182810382526021815260200180620012ea6021913960400191505060405180910390fd5b809150505b92915050565b60008082840190508381101562000454576040517f08c379a000000000000000000000000000000000000000000000000000000000815260040180806020018281038252601b8152602001807f536166654d6174683a206164646974696f6e206f766572666c6f77000000000081525060200191505060405180910390fd5b8091505092915050565b60008282600a0a8502816200046f57fe5b0490509392505050565b60008383111582906200052a576040517f08c379a00000000000000000000000000000000000000000000000000000000081526004018080602001828103825283818151815260200191508051906020019080838360005b83811015620004ee578082015181840152602081019050620004d1565b50505050905090810190601f1680156200051c5780820380516001836020036101000a031916815260200191505b509250505060405180910390fd5b5060008385039050809150509392505050565b828054600181600116156101000203166002900490600052602060002090601f016020900481019282601f106200058057805160ff1916838001178555620005b1565b82800160010185558215620005b1579182015b82811115620005b057825182559160200191906001019062000593565b5b509050620005c09190620005c4565b5090565b620005e991905b80821115620005e5576000816000905550600101620005cb565b5090565b90565b610cee80620005fc6000396000f3fe608060405234801561001057600080fd5b50600436106101165760003560e01c80638eaef827116100a2578063e96176b511610071578063e96176b514610352578063f1a9af8914610370578063f6f920f51461038e578063f851a44014610398578063fc0c546a146103e257610116565b80638eaef82714610261578063bc76293a1461026b578063d38ea5bf146102ee578063d40dd3b61461033457610116565b80633961ba93116100e95780633961ba93146101df5780634202bbe0146101fd57806344514a421461021b57806359e635d61461023957806382f94a691461024357610116565b80631c0557b21461011b5780632539204b146101255780632797d0a41461012f5780632ef463201461014d575b600080fd5b61012361042c565b005b61012d61042e565b005b610137610430565b6040518082815260200191505060405180910390f35b61018f6004803603602081101561016357600080fd5b81019080803573ffffffffffffffffffffffffffffffffffffffff169060200190929190505050610436565b604051808473ffffffffffffffffffffffffffffffffffffffff1673ffffffffffffffffffffffffffffffffffffffff168152602001838152602001828152602001935050505060405180910390f35b6101e7610480565b6040518082815260200191505060405180910390f35b610205610486565b6040518082815260200191505060405180910390f35b61022361048c565b6040518082815260200191505060405180910390f35b610241610492565b005b61024b610494565b6040518082815260200191505060405180910390f35b61026961049a565b005b61027361049c565b6040518080602001828103825283818151815260200191508051906020019080838360005b838110156102b3578082015181840152602081019050610298565b50505050905090810190601f1680156102e05780820380516001836020036101000a031916815260200191505b509250505060405180910390f35b61031a6004803603602081101561030457600080fd5b810190808035906020019092919050505061053a565b604051808215151515815260200191505060405180910390f35b61033c610888565b6040518082815260200191505060405180910390f35b61035a61088e565b6040518082815260200191505060405180910390f35b610378610894565b6040518082815260200191505060405180910390f35b61039661089a565b005b6103a061089c565b604051808273ffffffffffffffffffffffffffffffffffffffff1673ffffffffffffffffffffffffffffffffffffffff16815260200191505060405180910390f35b6103ea6108c2565b604051808273ffffffffffffffffffffffffffffffffffffffff1673ffffffffffffffffffffffffffffffffffffffff16815260200191505060405180910390f35b565b565b60035481565b600b6020528060005260406000206000915090508060000160009054906101000a900473ffffffffffffffffffffffffffffffffffffffff16908060010154908060020154905083565b60065481565b60095481565b600a5481565b565b60075481565b565b60028054600181600116156101000203166002900480601f0160208091040260200160405190810160405280929190818152602001828054600181600116156101000203166002900480156105325780601f1061050757610100808354040283529160200191610532565b820191906000526020600020905b81548152906001019060200180831161051557829003601f168201915b505050505081565b600080610546836108e7565b9050806000809054906101000a900473ffffffffffffffffffffffffffffffffffffffff1673ffffffffffffffffffffffffffffffffffffffff166370a08231336040518263ffffffff1660e01b8152600401808273ffffffffffffffffffffffffffffffffffffffff1673ffffffffffffffffffffffffffffffffffffffff16815260200191505060206040518083038186803b1580156105e757600080fd5b505afa1580156105fb573d6000803e3d6000fd5b505050506040513d602081101561061157600080fd5b81019080805190602001909291905050501015610696576040517f08c379a00000000000000000000000000000000000000000000000000000000081526004018080602001828103825260128152602001807f696e73756666696369656e742066756e6473000000000000000000000000000081525060200191505060405180910390fd5b6000809054906101000a900473ffffffffffffffffffffffffffffffffffffffff1673ffffffffffffffffffffffffffffffffffffffff166323b872dd3330846040518463ffffffff1660e01b8152600401808473ffffffffffffffffffffffffffffffffffffffff1673ffffffffffffffffffffffffffffffffffffffff1681526020018373ffffffffffffffffffffffffffffffffffffffff1673ffffffffffffffffffffffffffffffffffffffff1681526020018281526020019350505050602060405180830381600087803b15801561077257600080fd5b505af1158015610786573d6000803e3d6000fd5b505050506040513d602081101561079c57600080fd5b810190808051906020019092919050505061081f576040517f08c379a00000000000000000000000000000000000000000000000000000000081526004018080602001828103825260208152602001807f5472616e736665722044414920746f204d657263684974656d206661696c656481525060200191505060405180910390fd5b610829838261094d565b61087e576040517f08c379a0000000000000000000000000000000000000000000000000000000008152600401808060200182810382526022815260200180610c776022913960400191505060405180910390fd5b6001915050919050565b60085481565b60045481565b60055481565b565b600160009054906101000a900473ffffffffffffffffffffffffffffffffffffffff1681565b6000809054906101000a900473ffffffffffffffffffffffffffffffffffffffff1681565b60008060009050600080905060008090505b848110156109425761091e610919826007546109a090919063ffffffff16565b610a28565b925061093383836109a090919063ffffffff16565b915080806001019150506108f9565b508092505050919050565b6000610964836007546109a090919063ffffffff16565b60078190555061097f826008546109a090919063ffffffff16565b600881905550610990600754610a28565b6009819055506001905092915050565b600080828401905083811015610a1e576040517f08c379a000000000000000000000000000000000000000000000000000000000815260040180806020018281038252601b8152602001807f536166654d6174683a206164646974696f6e206f766572666c6f77000000000081525060200191505060405180910390fd5b8091505092915050565b600080610a556002610a47600354600554610acc90919063ffffffff16565b610b1690919063ffffffff16565b90506000610a9b671bc16d674ec80000610a8d610a7c600188610acc90919063ffffffff16565b600654610b1690919063ffffffff16565b6109a090919063ffffffff16565b90506000610abf600354610ab185856012610b9c565b6109a090919063ffffffff16565b9050809350505050919050565b6000610b0e83836040518060400160405280601e81526020017f536166654d6174683a207375627472616374696f6e206f766572666c6f770000815250610bb6565b905092915050565b600080831415610b295760009050610b96565b6000828402905082848281610b3a57fe5b0414610b91576040517f08c379a0000000000000000000000000000000000000000000000000000000008152600401808060200182810382526021815260200180610c996021913960400191505060405180910390fd5b809150505b92915050565b60008282600a0a850281610bac57fe5b0490509392505050565b6000838311158290610c63576040517f08c379a00000000000000000000000000000000000000000000000000000000081526004018080602001828103825283818151815260200191508051906020019080838360005b83811015610c28578082015181840152602081019050610c0d565b50505050905090810190601f168015610c555780820380516001836020036101000a031916815260200191505b509250505060405180910390fd5b506000838503905080915050939250505056fe6661696c656420746f20757064617465207468652067726f62616c20737461746573536166654d6174683a206d756c7469706c69636174696f6e206f766572666c6f77a265627a7a72315820f876c4f8c10b1adb0856ffd18a8e48d19c47d90296f6318607167796656f8d6764736f6c634300050e0032536166654d6174683a206d756c7469706c69636174696f6e206f766572666c6f77",
  "source": "pragma solidity ^0.5.14;\n\nimport \"openzeppelin-solidity/contracts/math/SafeMath.sol\";\nimport \"./Token.sol\";\n// import \"./IDai.sol\";\n\ncontract MerchItem {\n  using SafeMath for uint256;\n\n  Token public token;\n  // IDai dai;\n\n  struct Patron {\n    address patronAddress;\n    uint256 numOfPurchasedItem;\n    uint256 portionOfFunds;\n  }\n\n  address public admin;\n\n  string public nameOfItem;\n  uint256 public costOfItem;\n  uint256 public totalSupplyOfItem;\n  uint256 public startPrice;\n  uint256 public rateOfDecline;\n  uint256 public itemNumber;\n  uint256 public totalAmountOfItemSold; // total amount of funds collected from patrons\n  uint256 public priceOfItem;\n  uint256 public auctionLimit;\n  mapping(address => Patron) public patrons;\n\n  constructor(\n    string memory newNameOfItem,\n    uint256 newCostOfItem,\n    uint256 newTotalSupplyOfItem,\n    uint256 newStartPrice,\n    uint256 newRateOfDecline,\n    address tokenAddress\n    ) public {\n    nameOfItem = newNameOfItem;\n    costOfItem = newCostOfItem;\n    totalSupplyOfItem = newTotalSupplyOfItem;\n    startPrice = newStartPrice;\n    rateOfDecline = newRateOfDecline;\n    itemNumber = 1;\n    totalAmountOfItemSold = 0;\n    priceOfItem = _calculatePriceOfItem(itemNumber);\n    auctionLimit = 1 weeks;\n\n    admin = msg.sender;\n    // Token will be replaced with DAI contract when testing on test networks/mainnet\n    // DAIContract = Dai(daiAddress);\n    token = Token(tokenAddress);\n  }\n\n  function purchaseItem(uint256 numOfItem) public returns (bool) {\n    uint256 totalPayment = _calculateTotalPayment(numOfItem);\n    require(token.balanceOf(msg.sender) >= totalPayment, \"insufficient funds\");\n\n    require(token.transferFrom(msg.sender, address(this), totalPayment), \"Transfer DAI to MerchItem failed\");\n\n    require(_updateStates(numOfItem, totalPayment), \"failed to update the grobal states\");\n\n    // require(_mappingPatronToList(), \"fail\");\n    // require(_calculatePortionOfFunds(), \"fail\");\n    // require(_extendAuctionTimeLimit(), \"fail\");\n    // require(_transferFundsToCompound(), \"fail\");\n    return true;\n  }\n\n  // Function to send/withdraw funds to a particular address\n\n  /**\n  distributes funds in this contract receiving from patrons\n  to them, 50% of product sale\n   */\n  function distributeFundsToPatrons() public pure {\n\n  }\n\n\n  /**\n  allows the creators/artists who up items to an auction to\n  claim the total sold amount in the auction, this function needs hasDelivered to be\n  true, only creators/artists can invoke, 40% of product sale\n   */\n  function claimTotalSellingValue() public pure {\n\n  }\n\n  /**\n  pays 10% of product sale to Operations\n   */\n  function payOperationalCost() public pure {\n\n  }\n\n  // - allows patrons to request to delivery an item they bought in an auction to the seller/designer, only a patron who bought an item can invoke\n  function deliveryRequest() public pure {\n\n  }\n\n  // - updates the state of hasDelivered to true, only a patron who bought an item can invoke\n  function receivedItem() public pure {\n\n  }\n\n  //////////////////////////\n  //                      //\n  //  Internal functions  //\n  //                      //\n  //////////////////////////\n\n\n  // - checks who is in the patron list\n  function _hasPurchasedItem() internal pure returns(bool) {\n    return true;\n  }\n\n  function _calculateTotalPayment(uint256 numOfItem) internal view returns (uint256) {\n    uint256 subTotal = 0;\n    uint256 totalPayment = 0;\n\n    for(uint256 i = 0; i < numOfItem; i++) {\n      subTotal = _calculatePriceOfItem(itemNumber.add(i));\n      totalPayment = totalPayment.add(subTotal);\n    }\n    return totalPayment;\n  }\n\n  function _calculatePriceOfItem(uint256 itemNum) internal view returns (uint256) {\n    uint256 upper = (startPrice.sub(costOfItem)).mul(2);\n    uint256 under = (rateOfDecline.mul(itemNum.sub(1))).add(2000000000000000000);\n    uint256 result = (_specialDiv(upper, under, 18)).add(costOfItem);\n    return result;\n  }\n\n  function _paymentForItem(uint256 totalPayment) internal returns (bool) {\n    token.transferFrom(msg.sender, address(this), totalPayment);\n    require(token.balanceOf(address(this)) == totalPayment, \"The total payment amount has not been transferred to this contract yet\");\n    return true;\n  }\n\n  function _updateStates(uint256 numOfItem, uint256 totalPayment) internal returns (bool) {\n    itemNumber = itemNumber.add(numOfItem);\n    totalAmountOfItemSold = totalAmountOfItemSold.add(totalPayment);\n    priceOfItem = _calculatePriceOfItem(itemNumber);\n    return true;\n  }\n\n  // - adds a patron struct to patrons list(mapping)\n  function _createPatron(uint256 numOfItem, uint256 totalPayment) internal returns (bool) {\n    patrons[msg.sender] = Patron({\n      patronAddress: msg.sender,\n      numOfPurchasedItem: numOfItem,\n      portionOfFunds: totalPayment\n    }); \n    return true;\n  }\n  function _updatePatron(uint256 numOfItem, uint256 totalPayment) internal returns (bool) {\n    Patron storage p = patrons[msg.sender];\n    p.numOfPurchasedItem = p.numOfPurchasedItem.add(numOfItem);\n    p.portionOfFunds = p.portionOfFunds.add(totalPayment);\n    return true;\n  }\n\n  function _calculatePortionOfFunds() internal pure returns(bool) {\n    return true;\n\n  }\n\n  // - extends an auction adding 24 hours to the time limit\n  function _extendAuctionTimeLimit() internal pure returns(bool) {\n    return true;\n\n  }\n\n  // - deposits the funds collected from patrons to Compound to earn interest until the auction finishes\n  function _transferFundsToCompound() internal pure returns(bool) {\n    return true;\n\n  }\n\n  function _specialDiv(uint256 a, uint256 b, uint256 precision) internal pure returns (uint256) {\n    return a * (10 ** precision) / b;\n  }\n\n}\n",
  "sourcePath": "/Users/khiga619/Dev/flex/SwagDao/contracts/MerchItem.sol",
  "compiler": {
    "name": "solc",
    "version": "0.5.14+commit.01f1aaa4.Emscripten.clang"
  },
  "schemaVersion": "3.0.16",
  "updatedAt": "2019-12-26T13:13:32.201Z",
  "devdoc": {
    "methods": {}
  },
  "userdoc": {
    "methods": {
      "claimTotalSellingValue()": {
        "notice": "allows the creators/artists who up items to an auction to claim the total sold amount in the auction, this function needs hasDelivered to be true, only creators/artists can invoke, 40% of product sale"
      },
      "distributeFundsToPatrons()": {
        "notice": "distributes funds in this contract receiving from patrons to them, 50% of product sale"
      },
      "payOperationalCost()": {
        "notice": "pays 10% of product sale to Operations"
      }
    }
  }
}