{
  "contractName": "MerchItem",
  "abi": [
    {
      "constant": true,
      "inputs": [],
      "name": "costOfItem",
      "outputs": [
        {
          "name": "",
          "type": "uint256"
        }
      ],
      "payable": false,
      "stateMutability": "view",
      "type": "function"
    },
    {
      "constant": true,
      "inputs": [
        {
          "name": "",
          "type": "address"
        }
      ],
      "name": "patrons",
      "outputs": [
        {
          "name": "patronAddress",
          "type": "address"
        },
        {
          "name": "numOfPurchasedItem",
          "type": "uint256"
        },
        {
          "name": "portionOfFunds",
          "type": "uint256"
        },
        {
          "name": "hasDelivered",
          "type": "bool"
        }
      ],
      "payable": false,
      "stateMutability": "view",
      "type": "function"
    },
    {
      "constant": true,
      "inputs": [],
      "name": "priceOfItem",
      "outputs": [
        {
          "name": "",
          "type": "uint256"
        }
      ],
      "payable": false,
      "stateMutability": "view",
      "type": "function"
    },
    {
      "constant": true,
      "inputs": [],
      "name": "auctionLimit",
      "outputs": [
        {
          "name": "",
          "type": "uint256"
        }
      ],
      "payable": false,
      "stateMutability": "view",
      "type": "function"
    },
    {
      "constant": true,
      "inputs": [],
      "name": "rateOfPricingDecline",
      "outputs": [
        {
          "name": "",
          "type": "uint256"
        }
      ],
      "payable": false,
      "stateMutability": "view",
      "type": "function"
    },
    {
      "constant": true,
      "inputs": [],
      "name": "maximumAdditionalPrice",
      "outputs": [
        {
          "name": "",
          "type": "uint256"
        }
      ],
      "payable": false,
      "stateMutability": "view",
      "type": "function"
    },
    {
      "constant": true,
      "inputs": [],
      "name": "nameOfItem",
      "outputs": [
        {
          "name": "",
          "type": "string"
        }
      ],
      "payable": false,
      "stateMutability": "view",
      "type": "function"
    },
    {
      "constant": true,
      "inputs": [],
      "name": "totalAmountOfItemSold",
      "outputs": [
        {
          "name": "",
          "type": "uint256"
        }
      ],
      "payable": false,
      "stateMutability": "view",
      "type": "function"
    },
    {
      "constant": true,
      "inputs": [],
      "name": "totalSupplyOfItem",
      "outputs": [
        {
          "name": "",
          "type": "uint256"
        }
      ],
      "payable": false,
      "stateMutability": "view",
      "type": "function"
    },
    {
      "constant": true,
      "inputs": [],
      "name": "admin",
      "outputs": [
        {
          "name": "",
          "type": "address"
        }
      ],
      "payable": false,
      "stateMutability": "view",
      "type": "function"
    },
    {
      "constant": true,
      "inputs": [],
      "name": "token",
      "outputs": [
        {
          "name": "",
          "type": "address"
        }
      ],
      "payable": false,
      "stateMutability": "view",
      "type": "function"
    },
    {
      "inputs": [
        {
          "name": "newItemName",
          "type": "string"
        },
        {
          "name": "newItemCost",
          "type": "uint256"
        },
        {
          "name": "newItemTotalSupply",
          "type": "uint256"
        },
        {
          "name": "newMaximumAdditionalPrice",
          "type": "uint256"
        },
        {
          "name": "newRateOfPricingDecline",
          "type": "uint256"
        },
        {
          "name": "tokenAddress",
          "type": "address"
        }
      ],
      "payable": false,
      "stateMutability": "nonpayable",
      "type": "constructor"
    },
    {
      "constant": true,
      "inputs": [],
      "name": "purchaseItem",
      "outputs": [
        {
          "name": "",
          "type": "uint256"
        }
      ],
      "payable": false,
      "stateMutability": "view",
      "type": "function"
    },
    {
      "constant": true,
      "inputs": [],
      "name": "distributeFundsToPatrons",
      "outputs": [],
      "payable": false,
      "stateMutability": "pure",
      "type": "function"
    },
    {
      "constant": true,
      "inputs": [],
      "name": "claimTotalSellingValue",
      "outputs": [],
      "payable": false,
      "stateMutability": "pure",
      "type": "function"
    },
    {
      "constant": true,
      "inputs": [],
      "name": "payOperationalCost",
      "outputs": [],
      "payable": false,
      "stateMutability": "pure",
      "type": "function"
    },
    {
      "constant": true,
      "inputs": [],
      "name": "deliveryRequest",
      "outputs": [],
      "payable": false,
      "stateMutability": "pure",
      "type": "function"
    },
    {
      "constant": true,
      "inputs": [],
      "name": "receivedItem",
      "outputs": [],
      "payable": false,
      "stateMutability": "pure",
      "type": "function"
    },
    {
      "constant": true,
      "inputs": [],
      "name": "_checkPaymentAmount",
      "outputs": [
        {
          "name": "",
          "type": "uint256"
        }
      ],
      "payable": false,
      "stateMutability": "view",
      "type": "function"
    }
  ],
  "bytecode": "0x60806040523480156200001157600080fd5b5060405162000fb438038062000fb4833981018060405260c08110156200003757600080fd5b8101908080516401000000008111156200005057600080fd5b828101905060208101848111156200006757600080fd5b81518560018202830111640100000000821117156200008557600080fd5b505092919060200180519060200190929190805190602001909291908051906020019092919080519060200190929190805190602001909291905050508560029080519060200190620000da929190620004fa565b50846003819055508360068190555082600481905550816005819055506000600881905550620001d7600354620001ba6200017760026200015a6008546200013d600a600554620002746401000000000262000764179091906401000000009004565b620002cf64010000000002620007ae179091906401000000009004565b620003a0640100000000026200087b179091906401000000009004565b6200019d6002600454620002cf64010000000002620007ae179091906401000000009004565b620002746401000000000262000764179091906401000000009004565b620003a0640100000000026200087b179091906401000000009004565b60078190555062093a8060098190555033600160006101000a81548173ffffffffffffffffffffffffffffffffffffffff021916908373ffffffffffffffffffffffffffffffffffffffff160217905550806000806101000a81548173ffffffffffffffffffffffffffffffffffffffff021916908373ffffffffffffffffffffffffffffffffffffffff160217905550505050505050620005a9565b6000620002c783836040805190810160405280601a81526020017f536166654d6174683a206469766973696f6e206279207a65726f0000000000008152506200042b640100000000026401000000009004565b905092915050565b600080831415620002e457600090506200039a565b60008284029050828482811515620002f857fe5b0414151562000395576040517f08c379a00000000000000000000000000000000000000000000000000000000081526004018080602001828103825260218152602001807f536166654d6174683a206d756c7469706c69636174696f6e206f766572666c6f81526020017f770000000000000000000000000000000000000000000000000000000000000081525060400191505060405180910390fd5b809150505b92915050565b600080828401905083811015151562000421576040517f08c379a000000000000000000000000000000000000000000000000000000000815260040180806020018281038252601b8152602001807f536166654d6174683a206164646974696f6e206f766572666c6f77000000000081525060200191505060405180910390fd5b8091505092915050565b600080831182901515620004dd576040517f08c379a00000000000000000000000000000000000000000000000000000000081526004018080602001828103825283818151815260200191508051906020019080838360005b83811015620004a157808201518184015260208101905062000484565b50505050905090810190601f168015620004cf5780820380516001836020036101000a031916815260200191505b509250505060405180910390fd5b5060008385811515620004ec57fe5b049050809150509392505050565b828054600181600116156101000203166002900490600052602060002090601f016020900481019282601f106200053d57805160ff19168380011785556200056e565b828001600101855582156200056e579182015b828111156200056d57825182559160200191906001019062000550565b5b5090506200057d919062000581565b5090565b620005a691905b80821115620005a257600081600090555060010162000588565b5090565b90565b6109fb80620005b96000396000f3fe6080604052600436106100fc576000357c0100000000000000000000000000000000000000000000000000000000900463ffffffff1680631c0557b2146101015780632539204b146101185780632797d0a41461012f5780632ef463201461015a5780634202bbe01461020457806344514a421461022f57806359e635d61461025a5780637af7b566146102715780638eaef8271461029c5780639e599954146102b3578063a5294003146102de578063bc76293a14610309578063d40dd3b614610399578063e0d0c4a6146103c4578063e96176b5146103ef578063f6f920f51461041a578063f851a44014610431578063fc0c546a14610488575b600080fd5b34801561010d57600080fd5b506101166104df565b005b34801561012457600080fd5b5061012d6104e1565b005b34801561013b57600080fd5b506101446104e3565b6040518082815260200191505060405180910390f35b34801561016657600080fd5b506101a96004803603602081101561017d57600080fd5b81019080803573ffffffffffffffffffffffffffffffffffffffff1690602001909291905050506104e9565b604051808573ffffffffffffffffffffffffffffffffffffffff1673ffffffffffffffffffffffffffffffffffffffff1681526020018481526020018381526020018215151515815260200194505050505060405180910390f35b34801561021057600080fd5b50610219610546565b6040518082815260200191505060405180910390f35b34801561023b57600080fd5b5061024461054c565b6040518082815260200191505060405180910390f35b34801561026657600080fd5b5061026f610552565b005b34801561027d57600080fd5b50610286610554565b6040518082815260200191505060405180910390f35b3480156102a857600080fd5b506102b161055a565b005b3480156102bf57600080fd5b506102c861055c565b6040518082815260200191505060405180910390f35b3480156102ea57600080fd5b506102f3610562565b6040518082815260200191505060405180910390f35b34801561031557600080fd5b5061031e61065e565b6040518080602001828103825283818151815260200191508051906020019080838360005b8381101561035e578082015181840152602081019050610343565b50505050905090810190601f16801561038b5780820380516001836020036101000a031916815260200191505b509250505060405180910390f35b3480156103a557600080fd5b506103ae6106fc565b6040518082815260200191505060405180910390f35b3480156103d057600080fd5b506103d9610702565b6040518082815260200191505060405180910390f35b3480156103fb57600080fd5b50610404610711565b6040518082815260200191505060405180910390f35b34801561042657600080fd5b5061042f610717565b005b34801561043d57600080fd5b50610446610719565b604051808273ffffffffffffffffffffffffffffffffffffffff1673ffffffffffffffffffffffffffffffffffffffff16815260200191505060405180910390f35b34801561049457600080fd5b5061049d61073f565b604051808273ffffffffffffffffffffffffffffffffffffffff1673ffffffffffffffffffffffffffffffffffffffff16815260200191505060405180910390f35b565b565b60035481565b600a6020528060005260406000206000915090508060000160009054906101000a900473ffffffffffffffffffffffffffffffffffffffff16908060010154908060020154908060030160009054906101000a900460ff16905084565b60075481565b60095481565b565b60055481565b565b60045481565b60008060009054906101000a900473ffffffffffffffffffffffffffffffffffffffff1673ffffffffffffffffffffffffffffffffffffffff166370a08231336040518263ffffffff167c0100000000000000000000000000000000000000000000000000000000028152600401808273ffffffffffffffffffffffffffffffffffffffff1673ffffffffffffffffffffffffffffffffffffffff16815260200191505060206040518083038186803b15801561061e57600080fd5b505afa158015610632573d6000803e3d6000fd5b505050506040513d602081101561064857600080fd5b8101908080519060200190929190505050905090565b60028054600181600116156101000203166002900480601f0160208091040260200160405190810160405280929190818152602001828054600181600116156101000203166002900480156106f45780601f106106c9576101008083540402835291602001916106f4565b820191906000526020600020905b8154815290600101906020018083116106d757829003601f168201915b505050505081565b60085481565b600061070c610562565b905090565b60065481565b565b600160009054906101000a900473ffffffffffffffffffffffffffffffffffffffff1681565b6000809054906101000a900473ffffffffffffffffffffffffffffffffffffffff1681565b60006107a683836040805190810160405280601a81526020017f536166654d6174683a206469766973696f6e206279207a65726f000000000000815250610905565b905092915050565b6000808314156107c15760009050610875565b600082840290508284828115156107d457fe5b04141515610870576040517f08c379a00000000000000000000000000000000000000000000000000000000081526004018080602001828103825260218152602001807f536166654d6174683a206d756c7469706c69636174696f6e206f766572666c6f81526020017f770000000000000000000000000000000000000000000000000000000000000081525060400191505060405180910390fd5b809150505b92915050565b60008082840190508381101515156108fb576040517f08c379a000000000000000000000000000000000000000000000000000000000815260040180806020018281038252601b8152602001807f536166654d6174683a206164646974696f6e206f766572666c6f77000000000081525060200191505060405180910390fd5b8091505092915050565b6000808311829015156109b3576040517f08c379a00000000000000000000000000000000000000000000000000000000081526004018080602001828103825283818151815260200191508051906020019080838360005b8381101561097857808201518184015260208101905061095d565b50505050905090810190601f1680156109a55780820380516001836020036101000a031916815260200191505b509250505060405180910390fd5b50600083858115156109c157fe5b04905080915050939250505056fea165627a7a723058205baee78d5686d974d6040c7e4f8a09a8c3bcb95fdef18627de5c7f38869c89a80029",
  "source": "pragma solidity ^0.5.0;\n\nimport \"openzeppelin-solidity/contracts/math/SafeMath.sol\";\nimport \"./Token.sol\";\n\ncontract MerchItem {\n  using SafeMath for uint256;\n\n  Token public token;\n\n  struct Patron {\n    address patronAddress;\n    uint256 numOfPurchasedItem;\n    uint256 portionOfFunds;\n    bool hasDelivered;\n  }\n\n  address public admin;\n\n  string public nameOfItem;\n  uint256 public costOfItem;\n  uint256 public maximumAdditionalPrice;\n  uint256 public rateOfPricingDecline; // accepts from 1 to 20, and divide it by 10 when calculating priceOfItem\n  uint256 public totalSupplyOfItem;\n  uint256 public priceOfItem;\n  uint256 public totalAmountOfItemSold; // total amount of funds collected from patrons\n  uint256 public auctionLimit;\n  mapping(address => Patron) public patrons;\n\n  // constructor() public {\n  constructor(\n    string memory newItemName,\n    uint256 newItemCost,\n    uint256 newItemTotalSupply,\n    uint256 newMaximumAdditionalPrice,\n    uint256 newRateOfPricingDecline,\n    address tokenAddress\n    ) public {\n    nameOfItem = newItemName;\n    costOfItem = newItemCost;\n    totalSupplyOfItem = newItemTotalSupply;\n    maximumAdditionalPrice = newMaximumAdditionalPrice;\n    rateOfPricingDecline = newRateOfPricingDecline;\n    totalAmountOfItemSold = 0;\n    priceOfItem = (maximumAdditionalPrice.mul(2).div((rateOfPricingDecline.div(10).mul(totalAmountOfItemSold).add(2)))).add(costOfItem);\n    auctionLimit = 1 weeks;\n\n    admin = msg.sender;\n    // Token will be replaced with Dai contract when testing on test networks/mainnet\n    // DAIContract = Dai(daiAddress);\n    token = Token(tokenAddress);\n  }\n\n  function purchaseItem() public view returns (uint256) {\n    return _checkPaymentAmount();\n    // require(_checkPaymentAmount(), \"fail\");\n    // require(_mappingPatronToList(), \"fail\");\n    // require(_calculatePortionOfFunds(), \"fail\");\n    // require(_extendAuctionTimeLimit(), \"fail\");\n    // require(_transferFundsToCompound(), \"fail\");\n    // return true;\n  }\n\n  // Function to send/withdraw funds to a particular address\n\n  /**\n  distributes funds in this contract receiving from patrons\n  to them, 50% of product sale\n   */\n  function distributeFundsToPatrons() public pure {\n\n  }\n\n\n  /**\n  allows the creators/artists who up items to an auction to\n  claim the total sold amount in the auction, this function needs hasDelivered to be\n  true, only creators/artists can invoke, 40% of product sale\n   */\n  function claimTotalSellingValue() public pure {\n\n  }\n\n  /**\n  pays 10% of product sale to Operations\n   */\n  function payOperationalCost() public pure {\n\n  }\n\n  // - allows patrons to request to delivery an item they bought in an auction to the seller/designer, only a patron who bought an item can invoke\n  function deliveryRequest() public pure {\n\n  }\n\n  // - updates the state of hasDelivered to true, only a patron who bought an item can invoke\n  function receivedItem() public pure {\n\n  }\n\n  //////////////////////////\n  //                      //\n  //  Internal functions  //\n  //                      //\n  //////////////////////////\n\n\n  // - checks who is in the patron list\n  function _hasPurchasedItem() internal pure returns(bool) {\n    return true;\n  }\n\n  // - checks if the payment amount is enough to buy an item  \n  function _checkPaymentAmount() public view returns (uint256) {\n    // check if the user's DAI balance is greater than the payment amount\n    // require(token.balanceOf(msg.sender) >= costOfItem, \"insufficient funds\");\n    return token.balanceOf(msg.sender);\n\n    // get the current item price and check if the purchaser's DAI balance is sufficient (one item vs purchaser balance)\n\n    // if an user want to buy more than two items,\n    // you should calculate the item price after the current purhcasing(loop until the purchasing finish)\n\n    // create a new Patron struct and push it to patrons(mapping)\n    // return true;\n  }\n  \n  // - adds a patron struct to patrons list(mapping)\n  function _mappingPatronToList() internal pure returns(bool) {\n    return true;\n    \n  }\n\n  function _calculatePortionOfFunds() internal pure returns(bool) {\n    return true;\n\n  }\n\n  // - extends an auction adding 24 hours to the time limit\n  function _extendAuctionTimeLimit() internal pure returns(bool) {\n    return true;\n\n  }\n\n  // - deposits the funds collected from patrons to Compound to earn interest until the auction finishes\n  function _transferFundsToCompound() internal pure returns(bool) {\n    return true;\n\n  }\n\n\n}\n",
  "sourcePath": "/Users/khiga619/flex/SwagDao/contracts/MerchItem.sol",
  "compiler": {
    "name": "solc",
    "version": "0.5.0+commit.1d4f565a.Emscripten.clang"
  },
  "schemaVersion": "3.0.16",
  "updatedAt": "2019-12-11T04:32:02.858Z",
  "devdoc": {
    "methods": {}
  },
  "userdoc": {
    "methods": {
      "claimTotalSellingValue()": {
        "notice": "allows the creators/artists who up items to an auction to claim the total sold amount in the auction, this function needs hasDelivered to be true, only creators/artists can invoke, 40% of product sale"
      },
      "distributeFundsToPatrons()": {
        "notice": "distributes funds in this contract receiving from patrons to them, 50% of product sale"
      },
      "payOperationalCost()": {
        "notice": "pays 10% of product sale to Operations"
      }
    }
  }
}